{"abi":[{"inputs":[{"internalType":"address","name":"sender","type":"address"},{"internalType":"bytes4","name":"pass","type":"bytes4"}],"name":"display","outputs":[{"components":[{"internalType":"string","name":"link","type":"string"},{"internalType":"string","name":"name","type":"string"},{"internalType":"string","name":"date","type":"string"},{"internalType":"string","name":"format","type":"string"}],"internalType":"struct Drive.File[]","name":"","type":"tuple[]"}],"stateMutability":"view","type":"function"},{"inputs":[{"internalType":"address","name":"","type":"address"},{"internalType":"uint256","name":"","type":"uint256"}],"name":"file","outputs":[{"internalType":"string","name":"link","type":"string"},{"internalType":"string","name":"name","type":"string"},{"internalType":"string","name":"date","type":"string"},{"internalType":"string","name":"format","type":"string"}],"stateMutability":"view","type":"function"},{"inputs":[{"internalType":"address","name":"","type":"address"}],"name":"isRegistered","outputs":[{"internalType":"bool","name":"","type":"bool"}],"stateMutability":"view","type":"function"},{"inputs":[{"internalType":"bytes4","name":"pass","type":"bytes4"}],"name":"registerTodrive","outputs":[],"stateMutability":"nonpayable","type":"function"},{"inputs":[{"internalType":"address","name":"","type":"address"}],"name":"registered","outputs":[{"internalType":"bytes4","name":"","type":"bytes4"}],"stateMutability":"view","type":"function"},{"inputs":[{"internalType":"string","name":"file_name","type":"string"},{"internalType":"string","name":"file_link","type":"string"},{"internalType":"string","name":"d","type":"string"},{"internalType":"string","name":"f","type":"string"}],"name":"upload","outputs":[],"stateMutability":"nonpayable","type":"function"}],"devdoc":{"kind":"dev","methods":{},"version":1},"evm":{"assembly":"    /* \"Drive.sol\":70:936  contract Drive{... */\n  mstore(0x40, 0x80)\n  callvalue\n  dup1\n  iszero\n  tag_1\n  jumpi\n  0x00\n  dup1\n  revert\ntag_1:\n  pop\n  dataSize(sub_0)\n  dup1\n  dataOffset(sub_0)\n  0x00\n  codecopy\n  0x00\n  return\nstop\n\nsub_0: assembly {\n        /* \"Drive.sol\":70:936  contract Drive{... */\n      mstore(0x40, 0x80)\n      callvalue\n      dup1\n      iszero\n      tag_1\n      jumpi\n      0x00\n      dup1\n      revert\n    tag_1:\n      pop\n      jumpi(tag_2, lt(calldatasize, 0x04))\n      shr(0xe0, calldataload(0x00))\n      dup1\n      0x518cd7ca\n      eq\n      tag_3\n      jumpi\n      dup1\n      0xb2dd5c07\n      eq\n      tag_4\n      jumpi\n      dup1\n      0xc3c5a547\n      eq\n      tag_5\n      jumpi\n      dup1\n      0xcdebf222\n      eq\n      tag_6\n      jumpi\n      dup1\n      0xf54c4e46\n      eq\n      tag_7\n      jumpi\n      dup1\n      0xf65bce78\n      eq\n      tag_8\n      jumpi\n    tag_2:\n      0x00\n      dup1\n      revert\n        /* \"Drive.sol\":360:578  function upload(string memory file_name, string memory file_link, string memory d, string memory f) public{... */\n    tag_3:\n      tag_9\n      0x04\n      dup1\n      calldatasize\n      sub\n      dup2\n      add\n      swap1\n      tag_10\n      swap2\n      swap1\n      tag_11\n      jump\t// in\n    tag_10:\n      tag_12\n      jump\t// in\n    tag_9:\n      stop\n        /* \"Drive.sol\":261:305  mapping(address => bytes4) public registered */\n    tag_4:\n      tag_13\n      0x04\n      dup1\n      calldatasize\n      sub\n      dup2\n      add\n      swap1\n      tag_14\n      swap2\n      swap1\n      tag_15\n      jump\t// in\n    tag_14:\n      tag_16\n      jump\t// in\n    tag_13:\n      mload(0x40)\n      tag_17\n      swap2\n      swap1\n      tag_18\n      jump\t// in\n    tag_17:\n      mload(0x40)\n      dup1\n      swap2\n      sub\n      swap1\n      return\n        /* \"Drive.sol\":210:254  mapping(address => bool) public isRegistered */\n    tag_5:\n      tag_19\n      0x04\n      dup1\n      calldatasize\n      sub\n      dup2\n      add\n      swap1\n      tag_20\n      swap2\n      swap1\n      tag_15\n      jump\t// in\n    tag_20:\n      tag_21\n      jump\t// in\n    tag_19:\n      mload(0x40)\n      tag_22\n      swap2\n      swap1\n      tag_23\n      jump\t// in\n    tag_22:\n      mload(0x40)\n      dup1\n      swap2\n      sub\n      swap1\n      return\n        /* \"Drive.sol\":773:934  function display(address sender, bytes4 pass) public view returns(File[] memory){... */\n    tag_6:\n      tag_24\n      0x04\n      dup1\n      calldatasize\n      sub\n      dup2\n      add\n      swap1\n      tag_25\n      swap2\n      swap1\n      tag_26\n      jump\t// in\n    tag_25:\n      tag_27\n      jump\t// in\n    tag_24:\n      mload(0x40)\n      tag_28\n      swap2\n      swap1\n      tag_29\n      jump\t// in\n    tag_28:\n      mload(0x40)\n      dup1\n      swap2\n      sub\n      swap1\n      return\n        /* \"Drive.sol\":311:349  mapping(address => File[]) public file */\n    tag_7:\n      tag_30\n      0x04\n      dup1\n      calldatasize\n      sub\n      dup2\n      add\n      swap1\n      tag_31\n      swap2\n      swap1\n      tag_32\n      jump\t// in\n    tag_31:\n      tag_33\n      jump\t// in\n    tag_30:\n      mload(0x40)\n      tag_34\n      swap5\n      swap4\n      swap3\n      swap2\n      swap1\n      tag_35\n      jump\t// in\n    tag_34:\n      mload(0x40)\n      dup1\n      swap2\n      sub\n      swap1\n      return\n        /* \"Drive.sol\":588:763  function registerTodrive(bytes4 pass) public{... */\n    tag_8:\n      tag_36\n      0x04\n      dup1\n      calldatasize\n      sub\n      dup2\n      add\n      swap1\n      tag_37\n      swap2\n      swap1\n      tag_38\n      jump\t// in\n    tag_37:\n      tag_39\n      jump\t// in\n    tag_36:\n      stop\n        /* \"Drive.sol\":360:578  function upload(string memory file_name, string memory file_link, string memory d, string memory f) public{... */\n    tag_12:\n        /* \"Drive.sol\":484:496  isRegistered */\n      0x00\n        /* \"Drive.sol\":484:508  isRegistered[msg.sender] */\n      dup1\n        /* \"Drive.sol\":497:507  msg.sender */\n      caller\n        /* \"Drive.sol\":484:508  isRegistered[msg.sender] */\n      0xffffffffffffffffffffffffffffffffffffffff\n      and\n      0xffffffffffffffffffffffffffffffffffffffff\n      and\n      dup2\n      mstore\n      0x20\n      add\n      swap1\n      dup2\n      mstore\n      0x20\n      add\n      0x00\n      keccak256\n      0x00\n      swap1\n      sload\n      swap1\n      0x0100\n      exp\n      swap1\n      div\n      0xff\n      and\n        /* \"Drive.sol\":476:509  require(isRegistered[msg.sender]) */\n      tag_41\n      jumpi\n      0x00\n      dup1\n      revert\n    tag_41:\n        /* \"Drive.sol\":519:523  file */\n      0x02\n        /* \"Drive.sol\":519:535  file[msg.sender] */\n      0x00\n        /* \"Drive.sol\":524:534  msg.sender */\n      caller\n        /* \"Drive.sol\":519:535  file[msg.sender] */\n      0xffffffffffffffffffffffffffffffffffffffff\n      and\n      0xffffffffffffffffffffffffffffffffffffffff\n      and\n      dup2\n      mstore\n      0x20\n      add\n      swap1\n      dup2\n      mstore\n      0x20\n      add\n      0x00\n      keccak256\n        /* \"Drive.sol\":541:570  File(file_name,file_link,d,f) */\n      mload(0x40)\n      dup1\n      0x80\n      add\n      0x40\n      mstore\n      dup1\n        /* \"Drive.sol\":546:555  file_name */\n      dup7\n        /* \"Drive.sol\":541:570  File(file_name,file_link,d,f) */\n      dup2\n      mstore\n      0x20\n      add\n        /* \"Drive.sol\":556:565  file_link */\n      dup6\n        /* \"Drive.sol\":541:570  File(file_name,file_link,d,f) */\n      dup2\n      mstore\n      0x20\n      add\n        /* \"Drive.sol\":566:567  d */\n      dup5\n        /* \"Drive.sol\":541:570  File(file_name,file_link,d,f) */\n      dup2\n      mstore\n      0x20\n      add\n        /* \"Drive.sol\":568:569  f */\n      dup4\n        /* \"Drive.sol\":541:570  File(file_name,file_link,d,f) */\n      dup2\n      mstore\n      pop\n        /* \"Drive.sol\":519:571  file[msg.sender].push(File(file_name,file_link,d,f)) */\n      swap1\n      dup1\n      0x01\n      dup2\n      sload\n      add\n      dup1\n      dup3\n      sstore\n      dup1\n      swap2\n      pop\n      pop\n      0x01\n      swap1\n      sub\n      swap1\n      0x00\n      mstore\n      keccak256(0x00, 0x20)\n      swap1\n      0x04\n      mul\n      add\n      0x00\n      swap1\n      swap2\n      swap1\n      swap2\n      swap1\n      swap2\n      pop\n      0x00\n      dup3\n      add\n      mload\n      dup2\n      0x00\n      add\n      swap1\n      dup1\n      mload\n      swap1\n      0x20\n      add\n      swap1\n      tag_43\n      swap3\n      swap2\n      swap1\n      tag_44\n      jump\t// in\n    tag_43:\n      pop\n      0x20\n      dup3\n      add\n      mload\n      dup2\n      0x01\n      add\n      swap1\n      dup1\n      mload\n      swap1\n      0x20\n      add\n      swap1\n      tag_45\n      swap3\n      swap2\n      swap1\n      tag_44\n      jump\t// in\n    tag_45:\n      pop\n      0x40\n      dup3\n      add\n      mload\n      dup2\n      0x02\n      add\n      swap1\n      dup1\n      mload\n      swap1\n      0x20\n      add\n      swap1\n      tag_46\n      swap3\n      swap2\n      swap1\n      tag_44\n      jump\t// in\n    tag_46:\n      pop\n      0x60\n      dup3\n      add\n      mload\n      dup2\n      0x03\n      add\n      swap1\n      dup1\n      mload\n      swap1\n      0x20\n      add\n      swap1\n      tag_47\n      swap3\n      swap2\n      swap1\n      tag_44\n      jump\t// in\n    tag_47:\n      pop\n      pop\n      pop\n        /* \"Drive.sol\":360:578  function upload(string memory file_name, string memory file_link, string memory d, string memory f) public{... */\n      pop\n      pop\n      pop\n      pop\n      jump\t// out\n        /* \"Drive.sol\":261:305  mapping(address => bytes4) public registered */\n    tag_16:\n      mstore(0x20, 0x01)\n      dup1\n      0x00\n      mstore\n      keccak256(0x00, 0x40)\n      0x00\n      swap2\n      pop\n      sload\n      swap1\n      0x0100\n      exp\n      swap1\n      div\n      0xe0\n      shl\n      dup2\n      jump\t// out\n        /* \"Drive.sol\":210:254  mapping(address => bool) public isRegistered */\n    tag_21:\n      mstore(0x20, 0x00)\n      dup1\n      0x00\n      mstore\n      keccak256(0x00, 0x40)\n      0x00\n      swap2\n      pop\n      sload\n      swap1\n      0x0100\n      exp\n      swap1\n      div\n      0xff\n      and\n      dup2\n      jump\t// out\n        /* \"Drive.sol\":773:934  function display(address sender, bytes4 pass) public view returns(File[] memory){... */\n    tag_27:\n        /* \"Drive.sol\":839:852  File[] memory */\n      0x60\n        /* \"Drive.sol\":893:897  pass */\n      dup2\n        /* \"Drive.sol\":871:897  registered[sender] == pass */\n      not(0xffffffffffffffffffffffffffffffffffffffffffffffffffffffff)\n      and\n        /* \"Drive.sol\":871:881  registered */\n      0x01\n        /* \"Drive.sol\":871:889  registered[sender] */\n      0x00\n        /* \"Drive.sol\":882:888  sender */\n      dup6\n        /* \"Drive.sol\":871:889  registered[sender] */\n      0xffffffffffffffffffffffffffffffffffffffff\n      and\n      0xffffffffffffffffffffffffffffffffffffffff\n      and\n      dup2\n      mstore\n      0x20\n      add\n      swap1\n      dup2\n      mstore\n      0x20\n      add\n      0x00\n      keccak256\n      0x00\n      swap1\n      sload\n      swap1\n      0x0100\n      exp\n      swap1\n      div\n      0xe0\n      shl\n        /* \"Drive.sol\":871:897  registered[sender] == pass */\n      not(0xffffffffffffffffffffffffffffffffffffffffffffffffffffffff)\n      and\n      eq\n        /* \"Drive.sol\":863:898  require(registered[sender] == pass) */\n      tag_49\n      jumpi\n      0x00\n      dup1\n      revert\n    tag_49:\n        /* \"Drive.sol\":915:919  file */\n      0x02\n        /* \"Drive.sol\":915:927  file[sender] */\n      0x00\n        /* \"Drive.sol\":920:926  sender */\n      dup5\n        /* \"Drive.sol\":915:927  file[sender] */\n      0xffffffffffffffffffffffffffffffffffffffff\n      and\n      0xffffffffffffffffffffffffffffffffffffffff\n      and\n      dup2\n      mstore\n      0x20\n      add\n      swap1\n      dup2\n      mstore\n      0x20\n      add\n      0x00\n      keccak256\n        /* \"Drive.sol\":908:927  return file[sender] */\n      dup1\n      sload\n      dup1\n      0x20\n      mul\n      0x20\n      add\n      mload(0x40)\n      swap1\n      dup2\n      add\n      0x40\n      mstore\n      dup1\n      swap3\n      swap2\n      swap1\n      dup2\n      dup2\n      mstore\n      0x20\n      add\n      0x00\n      swap1\n    tag_50:\n      dup3\n      dup3\n      lt\n      iszero\n      tag_51\n      jumpi\n      dup4\n      dup3\n      swap1\n      0x00\n      mstore\n      keccak256(0x00, 0x20)\n      swap1\n      0x04\n      mul\n      add\n      mload(0x40)\n      dup1\n      0x80\n      add\n      0x40\n      mstore\n      swap1\n      dup2\n      0x00\n      dup3\n      add\n      dup1\n      sload\n      tag_53\n      swap1\n      tag_54\n      jump\t// in\n    tag_53:\n      dup1\n      0x1f\n      add\n      0x20\n      dup1\n      swap2\n      div\n      mul\n      0x20\n      add\n      mload(0x40)\n      swap1\n      dup2\n      add\n      0x40\n      mstore\n      dup1\n      swap3\n      swap2\n      swap1\n      dup2\n      dup2\n      mstore\n      0x20\n      add\n      dup3\n      dup1\n      sload\n      tag_55\n      swap1\n      tag_54\n      jump\t// in\n    tag_55:\n      dup1\n      iszero\n      tag_56\n      jumpi\n      dup1\n      0x1f\n      lt\n      tag_57\n      jumpi\n      0x0100\n      dup1\n      dup4\n      sload\n      div\n      mul\n      dup4\n      mstore\n      swap2\n      0x20\n      add\n      swap2\n      jump(tag_56)\n    tag_57:\n      dup3\n      add\n      swap2\n      swap1\n      0x00\n      mstore\n      keccak256(0x00, 0x20)\n      swap1\n    tag_58:\n      dup2\n      sload\n      dup2\n      mstore\n      swap1\n      0x01\n      add\n      swap1\n      0x20\n      add\n      dup1\n      dup4\n      gt\n      tag_58\n      jumpi\n      dup3\n      swap1\n      sub\n      0x1f\n      and\n      dup3\n      add\n      swap2\n    tag_56:\n      pop\n      pop\n      pop\n      pop\n      pop\n      dup2\n      mstore\n      0x20\n      add\n      0x01\n      dup3\n      add\n      dup1\n      sload\n      tag_59\n      swap1\n      tag_54\n      jump\t// in\n    tag_59:\n      dup1\n      0x1f\n      add\n      0x20\n      dup1\n      swap2\n      div\n      mul\n      0x20\n      add\n      mload(0x40)\n      swap1\n      dup2\n      add\n      0x40\n      mstore\n      dup1\n      swap3\n      swap2\n      swap1\n      dup2\n      dup2\n      mstore\n      0x20\n      add\n      dup3\n      dup1\n      sload\n      tag_60\n      swap1\n      tag_54\n      jump\t// in\n    tag_60:\n      dup1\n      iszero\n      tag_61\n      jumpi\n      dup1\n      0x1f\n      lt\n      tag_62\n      jumpi\n      0x0100\n      dup1\n      dup4\n      sload\n      div\n      mul\n      dup4\n      mstore\n      swap2\n      0x20\n      add\n      swap2\n      jump(tag_61)\n    tag_62:\n      dup3\n      add\n      swap2\n      swap1\n      0x00\n      mstore\n      keccak256(0x00, 0x20)\n      swap1\n    tag_63:\n      dup2\n      sload\n      dup2\n      mstore\n      swap1\n      0x01\n      add\n      swap1\n      0x20\n      add\n      dup1\n      dup4\n      gt\n      tag_63\n      jumpi\n      dup3\n      swap1\n      sub\n      0x1f\n      and\n      dup3\n      add\n      swap2\n    tag_61:\n      pop\n      pop\n      pop\n      pop\n      pop\n      dup2\n      mstore\n      0x20\n      add\n      0x02\n      dup3\n      add\n      dup1\n      sload\n      tag_64\n      swap1\n      tag_54\n      jump\t// in\n    tag_64:\n      dup1\n      0x1f\n      add\n      0x20\n      dup1\n      swap2\n      div\n      mul\n      0x20\n      add\n      mload(0x40)\n      swap1\n      dup2\n      add\n      0x40\n      mstore\n      dup1\n      swap3\n      swap2\n      swap1\n      dup2\n      dup2\n      mstore\n      0x20\n      add\n      dup3\n      dup1\n      sload\n      tag_65\n      swap1\n      tag_54\n      jump\t// in\n    tag_65:\n      dup1\n      iszero\n      tag_66\n      jumpi\n      dup1\n      0x1f\n      lt\n      tag_67\n      jumpi\n      0x0100\n      dup1\n      dup4\n      sload\n      div\n      mul\n      dup4\n      mstore\n      swap2\n      0x20\n      add\n      swap2\n      jump(tag_66)\n    tag_67:\n      dup3\n      add\n      swap2\n      swap1\n      0x00\n      mstore\n      keccak256(0x00, 0x20)\n      swap1\n    tag_68:\n      dup2\n      sload\n      dup2\n      mstore\n      swap1\n      0x01\n      add\n      swap1\n      0x20\n      add\n      dup1\n      dup4\n      gt\n      tag_68\n      jumpi\n      dup3\n      swap1\n      sub\n      0x1f\n      and\n      dup3\n      add\n      swap2\n    tag_66:\n      pop\n      pop\n      pop\n      pop\n      pop\n      dup2\n      mstore\n      0x20\n      add\n      0x03\n      dup3\n      add\n      dup1\n      sload\n      tag_69\n      swap1\n      tag_54\n      jump\t// in\n    tag_69:\n      dup1\n      0x1f\n      add\n      0x20\n      dup1\n      swap2\n      div\n      mul\n      0x20\n      add\n      mload(0x40)\n      swap1\n      dup2\n      add\n      0x40\n      mstore\n      dup1\n      swap3\n      swap2\n      swap1\n      dup2\n      dup2\n      mstore\n      0x20\n      add\n      dup3\n      dup1\n      sload\n      tag_70\n      swap1\n      tag_54\n      jump\t// in\n    tag_70:\n      dup1\n      iszero\n      tag_71\n      jumpi\n      dup1\n      0x1f\n      lt\n      tag_72\n      jumpi\n      0x0100\n      dup1\n      dup4\n      sload\n      div\n      mul\n      dup4\n      mstore\n      swap2\n      0x20\n      add\n      swap2\n      jump(tag_71)\n    tag_72:\n      dup3\n      add\n      swap2\n      swap1\n      0x00\n      mstore\n      keccak256(0x00, 0x20)\n      swap1\n    tag_73:\n      dup2\n      sload\n      dup2\n      mstore\n      swap1\n      0x01\n      add\n      swap1\n      0x20\n      add\n      dup1\n      dup4\n      gt\n      tag_73\n      jumpi\n      dup3\n      swap1\n      sub\n      0x1f\n      and\n      dup3\n      add\n      swap2\n    tag_71:\n      pop\n      pop\n      pop\n      pop\n      pop\n      dup2\n      mstore\n      pop\n      pop\n      dup2\n      mstore\n      0x20\n      add\n      swap1\n      0x01\n      add\n      swap1\n      jump(tag_50)\n    tag_51:\n      pop\n      pop\n      pop\n      pop\n      swap1\n      pop\n        /* \"Drive.sol\":773:934  function display(address sender, bytes4 pass) public view returns(File[] memory){... */\n      swap3\n      swap2\n      pop\n      pop\n      jump\t// out\n        /* \"Drive.sol\":311:349  mapping(address => File[]) public file */\n    tag_33:\n      mstore(0x20, 0x02)\n      dup2\n      0x00\n      mstore\n      keccak256(0x00, 0x40)\n      dup2\n      dup2\n      sload\n      dup2\n      lt\n      tag_74\n      jumpi\n      0x00\n      dup1\n      revert\n    tag_74:\n      swap1\n      0x00\n      mstore\n      keccak256(0x00, 0x20)\n      swap1\n      0x04\n      mul\n      add\n      0x00\n      swap2\n      pop\n      swap2\n      pop\n      pop\n      dup1\n      0x00\n      add\n      dup1\n      sload\n      tag_76\n      swap1\n      tag_54\n      jump\t// in\n    tag_76:\n      dup1\n      0x1f\n      add\n      0x20\n      dup1\n      swap2\n      div\n      mul\n      0x20\n      add\n      mload(0x40)\n      swap1\n      dup2\n      add\n      0x40\n      mstore\n      dup1\n      swap3\n      swap2\n      swap1\n      dup2\n      dup2\n      mstore\n      0x20\n      add\n      dup3\n      dup1\n      sload\n      tag_77\n      swap1\n      tag_54\n      jump\t// in\n    tag_77:\n      dup1\n      iszero\n      tag_78\n      jumpi\n      dup1\n      0x1f\n      lt\n      tag_79\n      jumpi\n      0x0100\n      dup1\n      dup4\n      sload\n      div\n      mul\n      dup4\n      mstore\n      swap2\n      0x20\n      add\n      swap2\n      jump(tag_78)\n    tag_79:\n      dup3\n      add\n      swap2\n      swap1\n      0x00\n      mstore\n      keccak256(0x00, 0x20)\n      swap1\n    tag_80:\n      dup2\n      sload\n      dup2\n      mstore\n      swap1\n      0x01\n      add\n      swap1\n      0x20\n      add\n      dup1\n      dup4\n      gt\n      tag_80\n      jumpi\n      dup3\n      swap1\n      sub\n      0x1f\n      and\n      dup3\n      add\n      swap2\n    tag_78:\n      pop\n      pop\n      pop\n      pop\n      pop\n      swap1\n      dup1\n      0x01\n      add\n      dup1\n      sload\n      tag_81\n      swap1\n      tag_54\n      jump\t// in\n    tag_81:\n      dup1\n      0x1f\n      add\n      0x20\n      dup1\n      swap2\n      div\n      mul\n      0x20\n      add\n      mload(0x40)\n      swap1\n      dup2\n      add\n      0x40\n      mstore\n      dup1\n      swap3\n      swap2\n      swap1\n      dup2\n      dup2\n      mstore\n      0x20\n      add\n      dup3\n      dup1\n      sload\n      tag_82\n      swap1\n      tag_54\n      jump\t// in\n    tag_82:\n      dup1\n      iszero\n      tag_83\n      jumpi\n      dup1\n      0x1f\n      lt\n      tag_84\n      jumpi\n      0x0100\n      dup1\n      dup4\n      sload\n      div\n      mul\n      dup4\n      mstore\n      swap2\n      0x20\n      add\n      swap2\n      jump(tag_83)\n    tag_84:\n      dup3\n      add\n      swap2\n      swap1\n      0x00\n      mstore\n      keccak256(0x00, 0x20)\n      swap1\n    tag_85:\n      dup2\n      sload\n      dup2\n      mstore\n      swap1\n      0x01\n      add\n      swap1\n      0x20\n      add\n      dup1\n      dup4\n      gt\n      tag_85\n      jumpi\n      dup3\n      swap1\n      sub\n      0x1f\n      and\n      dup3\n      add\n      swap2\n    tag_83:\n      pop\n      pop\n      pop\n      pop\n      pop\n      swap1\n      dup1\n      0x02\n      add\n      dup1\n      sload\n      tag_86\n      swap1\n      tag_54\n      jump\t// in\n    tag_86:\n      dup1\n      0x1f\n      add\n      0x20\n      dup1\n      swap2\n      div\n      mul\n      0x20\n      add\n      mload(0x40)\n      swap1\n      dup2\n      add\n      0x40\n      mstore\n      dup1\n      swap3\n      swap2\n      swap1\n      dup2\n      dup2\n      mstore\n      0x20\n      add\n      dup3\n      dup1\n      sload\n      tag_87\n      swap1\n      tag_54\n      jump\t// in\n    tag_87:\n      dup1\n      iszero\n      tag_88\n      jumpi\n      dup1\n      0x1f\n      lt\n      tag_89\n      jumpi\n      0x0100\n      dup1\n      dup4\n      sload\n      div\n      mul\n      dup4\n      mstore\n      swap2\n      0x20\n      add\n      swap2\n      jump(tag_88)\n    tag_89:\n      dup3\n      add\n      swap2\n      swap1\n      0x00\n      mstore\n      keccak256(0x00, 0x20)\n      swap1\n    tag_90:\n      dup2\n      sload\n      dup2\n      mstore\n      swap1\n      0x01\n      add\n      swap1\n      0x20\n      add\n      dup1\n      dup4\n      gt\n      tag_90\n      jumpi\n      dup3\n      swap1\n      sub\n      0x1f\n      and\n      dup3\n      add\n      swap2\n    tag_88:\n      pop\n      pop\n      pop\n      pop\n      pop\n      swap1\n      dup1\n      0x03\n      add\n      dup1\n      sload\n      tag_91\n      swap1\n      tag_54\n      jump\t// in\n    tag_91:\n      dup1\n      0x1f\n      add\n      0x20\n      dup1\n      swap2\n      div\n      mul\n      0x20\n      add\n      mload(0x40)\n      swap1\n      dup2\n      add\n      0x40\n      mstore\n      dup1\n      swap3\n      swap2\n      swap1\n      dup2\n      dup2\n      mstore\n      0x20\n      add\n      dup3\n      dup1\n      sload\n      tag_92\n      swap1\n      tag_54\n      jump\t// in\n    tag_92:\n      dup1\n      iszero\n      tag_93\n      jumpi\n      dup1\n      0x1f\n      lt\n      tag_94\n      jumpi\n      0x0100\n      dup1\n      dup4\n      sload\n      div\n      mul\n      dup4\n      mstore\n      swap2\n      0x20\n      add\n      swap2\n      jump(tag_93)\n    tag_94:\n      dup3\n      add\n      swap2\n      swap1\n      0x00\n      mstore\n      keccak256(0x00, 0x20)\n      swap1\n    tag_95:\n      dup2\n      sload\n      dup2\n      mstore\n      swap1\n      0x01\n      add\n      swap1\n      0x20\n      add\n      dup1\n      dup4\n      gt\n      tag_95\n      jumpi\n      dup3\n      swap1\n      sub\n      0x1f\n      and\n      dup3\n      add\n      swap2\n    tag_93:\n      pop\n      pop\n      pop\n      pop\n      pop\n      swap1\n      pop\n      dup5\n      jump\t// out\n        /* \"Drive.sol\":588:763  function registerTodrive(bytes4 pass) public{... */\n    tag_39:\n        /* \"Drive.sol\":651:663  isRegistered */\n      0x00\n        /* \"Drive.sol\":651:675  isRegistered[msg.sender] */\n      dup1\n        /* \"Drive.sol\":664:674  msg.sender */\n      caller\n        /* \"Drive.sol\":651:675  isRegistered[msg.sender] */\n      0xffffffffffffffffffffffffffffffffffffffff\n      and\n      0xffffffffffffffffffffffffffffffffffffffff\n      and\n      dup2\n      mstore\n      0x20\n      add\n      swap1\n      dup2\n      mstore\n      0x20\n      add\n      0x00\n      keccak256\n      0x00\n      swap1\n      sload\n      swap1\n      0x0100\n      exp\n      swap1\n      div\n      0xff\n      and\n        /* \"Drive.sol\":650:675  !isRegistered[msg.sender] */\n      iszero\n        /* \"Drive.sol\":642:676  require(!isRegistered[msg.sender]) */\n      tag_97\n      jumpi\n      0x00\n      dup1\n      revert\n    tag_97:\n        /* \"Drive.sol\":711:715  pass */\n      dup1\n        /* \"Drive.sol\":686:696  registered */\n      0x01\n        /* \"Drive.sol\":686:708  registered[msg.sender] */\n      0x00\n        /* \"Drive.sol\":697:707  msg.sender */\n      caller\n        /* \"Drive.sol\":686:708  registered[msg.sender] */\n      0xffffffffffffffffffffffffffffffffffffffff\n      and\n      0xffffffffffffffffffffffffffffffffffffffff\n      and\n      dup2\n      mstore\n      0x20\n      add\n      swap1\n      dup2\n      mstore\n      0x20\n      add\n      0x00\n      keccak256\n      0x00\n        /* \"Drive.sol\":686:715  registered[msg.sender] = pass */\n      0x0100\n      exp\n      dup2\n      sload\n      dup2\n      0xffffffff\n      mul\n      not\n      and\n      swap1\n      dup4\n      0xe0\n      shr\n      mul\n      or\n      swap1\n      sstore\n      pop\n        /* \"Drive.sol\":752:756  true */\n      0x01\n        /* \"Drive.sol\":725:737  isRegistered */\n      0x00\n        /* \"Drive.sol\":725:749  isRegistered[msg.sender] */\n      dup1\n        /* \"Drive.sol\":738:748  msg.sender */\n      caller\n        /* \"Drive.sol\":725:749  isRegistered[msg.sender] */\n      0xffffffffffffffffffffffffffffffffffffffff\n      and\n      0xffffffffffffffffffffffffffffffffffffffff\n      and\n      dup2\n      mstore\n      0x20\n      add\n      swap1\n      dup2\n      mstore\n      0x20\n      add\n      0x00\n      keccak256\n      0x00\n        /* \"Drive.sol\":725:756  isRegistered[msg.sender] = true */\n      0x0100\n      exp\n      dup2\n      sload\n      dup2\n      0xff\n      mul\n      not\n      and\n      swap1\n      dup4\n      iszero\n      iszero\n      mul\n      or\n      swap1\n      sstore\n      pop\n        /* \"Drive.sol\":588:763  function registerTodrive(bytes4 pass) public{... */\n      pop\n      jump\t// out\n    tag_44:\n      dup3\n      dup1\n      sload\n      tag_98\n      swap1\n      tag_54\n      jump\t// in\n    tag_98:\n      swap1\n      0x00\n      mstore\n      keccak256(0x00, 0x20)\n      swap1\n      0x1f\n      add\n      0x20\n      swap1\n      div\n      dup2\n      add\n      swap3\n      dup3\n      tag_100\n      jumpi\n      0x00\n      dup6\n      sstore\n      jump(tag_99)\n    tag_100:\n      dup3\n      0x1f\n      lt\n      tag_101\n      jumpi\n      dup1\n      mload\n      not(0xff)\n      and\n      dup4\n      dup1\n      add\n      or\n      dup6\n      sstore\n      jump(tag_99)\n    tag_101:\n      dup3\n      dup1\n      add\n      0x01\n      add\n      dup6\n      sstore\n      dup3\n      iszero\n      tag_99\n      jumpi\n      swap2\n      dup3\n      add\n    tag_102:\n      dup3\n      dup2\n      gt\n      iszero\n      tag_103\n      jumpi\n      dup3\n      mload\n      dup3\n      sstore\n      swap2\n      0x20\n      add\n      swap2\n      swap1\n      0x01\n      add\n      swap1\n      jump(tag_102)\n    tag_103:\n    tag_99:\n      pop\n      swap1\n      pop\n      tag_104\n      swap2\n      swap1\n      tag_105\n      jump\t// in\n    tag_104:\n      pop\n      swap1\n      jump\t// out\n    tag_105:\n    tag_106:\n      dup1\n      dup3\n      gt\n      iszero\n      tag_107\n      jumpi\n      0x00\n      dup2\n      0x00\n      swap1\n      sstore\n      pop\n      0x01\n      add\n      jump(tag_106)\n    tag_107:\n      pop\n      swap1\n      jump\t// out\n        /* \"#utility.yul\":7:352   */\n    tag_109:\n      0x00\n        /* \"#utility.yul\":110:176   */\n      tag_111\n        /* \"#utility.yul\":126:175   */\n      tag_112\n        /* \"#utility.yul\":168:174   */\n      dup5\n        /* \"#utility.yul\":126:175   */\n      tag_113\n      jump\t// in\n    tag_112:\n        /* \"#utility.yul\":110:176   */\n      tag_114\n      jump\t// in\n    tag_111:\n        /* \"#utility.yul\":101:176   */\n      swap1\n      pop\n        /* \"#utility.yul\":199:205   */\n      dup3\n        /* \"#utility.yul\":192:197   */\n      dup2\n        /* \"#utility.yul\":185:206   */\n      mstore\n        /* \"#utility.yul\":237:241   */\n      0x20\n        /* \"#utility.yul\":230:235   */\n      dup2\n        /* \"#utility.yul\":226:242   */\n      add\n        /* \"#utility.yul\":275:278   */\n      dup5\n        /* \"#utility.yul\":266:272   */\n      dup5\n        /* \"#utility.yul\":261:264   */\n      dup5\n        /* \"#utility.yul\":257:273   */\n      add\n        /* \"#utility.yul\":254:279   */\n      gt\n        /* \"#utility.yul\":251:253   */\n      iszero\n      tag_115\n      jumpi\n        /* \"#utility.yul\":292:293   */\n      0x00\n        /* \"#utility.yul\":289:290   */\n      dup1\n        /* \"#utility.yul\":282:294   */\n      revert\n        /* \"#utility.yul\":251:253   */\n    tag_115:\n        /* \"#utility.yul\":305:346   */\n      tag_116\n        /* \"#utility.yul\":339:345   */\n      dup5\n        /* \"#utility.yul\":334:337   */\n      dup3\n        /* \"#utility.yul\":329:332   */\n      dup6\n        /* \"#utility.yul\":305:346   */\n      tag_117\n      jump\t// in\n    tag_116:\n        /* \"#utility.yul\":91:352   */\n      pop\n      swap4\n      swap3\n      pop\n      pop\n      pop\n      jump\t// out\n        /* \"#utility.yul\":358:497   */\n    tag_118:\n      0x00\n        /* \"#utility.yul\":442:448   */\n      dup2\n        /* \"#utility.yul\":429:449   */\n      calldataload\n        /* \"#utility.yul\":420:449   */\n      swap1\n      pop\n        /* \"#utility.yul\":458:491   */\n      tag_120\n        /* \"#utility.yul\":485:490   */\n      dup2\n        /* \"#utility.yul\":458:491   */\n      tag_121\n      jump\t// in\n    tag_120:\n        /* \"#utility.yul\":410:497   */\n      swap3\n      swap2\n      pop\n      pop\n      jump\t// out\n        /* \"#utility.yul\":503:640   */\n    tag_122:\n      0x00\n        /* \"#utility.yul\":586:592   */\n      dup2\n        /* \"#utility.yul\":573:593   */\n      calldataload\n        /* \"#utility.yul\":564:593   */\n      swap1\n      pop\n        /* \"#utility.yul\":602:634   */\n      tag_124\n        /* \"#utility.yul\":628:633   */\n      dup2\n        /* \"#utility.yul\":602:634   */\n      tag_125\n      jump\t// in\n    tag_124:\n        /* \"#utility.yul\":554:640   */\n      swap3\n      swap2\n      pop\n      pop\n      jump\t// out\n        /* \"#utility.yul\":660:933   */\n    tag_126:\n      0x00\n        /* \"#utility.yul\":765:768   */\n      dup3\n        /* \"#utility.yul\":758:762   */\n      0x1f\n        /* \"#utility.yul\":750:756   */\n      dup4\n        /* \"#utility.yul\":746:763   */\n      add\n        /* \"#utility.yul\":742:769   */\n      slt\n        /* \"#utility.yul\":732:734   */\n      tag_128\n      jumpi\n        /* \"#utility.yul\":783:784   */\n      0x00\n        /* \"#utility.yul\":780:781   */\n      dup1\n        /* \"#utility.yul\":773:785   */\n      revert\n        /* \"#utility.yul\":732:734   */\n    tag_128:\n        /* \"#utility.yul\":823:829   */\n      dup2\n        /* \"#utility.yul\":810:830   */\n      calldataload\n        /* \"#utility.yul\":848:927   */\n      tag_129\n        /* \"#utility.yul\":923:926   */\n      dup5\n        /* \"#utility.yul\":915:921   */\n      dup3\n        /* \"#utility.yul\":908:912   */\n      0x20\n        /* \"#utility.yul\":900:906   */\n      dup7\n        /* \"#utility.yul\":896:913   */\n      add\n        /* \"#utility.yul\":848:927   */\n      tag_109\n      jump\t// in\n    tag_129:\n        /* \"#utility.yul\":839:927   */\n      swap2\n      pop\n        /* \"#utility.yul\":722:933   */\n      pop\n      swap3\n      swap2\n      pop\n      pop\n      jump\t// out\n        /* \"#utility.yul\":939:1078   */\n    tag_130:\n      0x00\n        /* \"#utility.yul\":1023:1029   */\n      dup2\n        /* \"#utility.yul\":1010:1030   */\n      calldataload\n        /* \"#utility.yul\":1001:1030   */\n      swap1\n      pop\n        /* \"#utility.yul\":1039:1072   */\n      tag_132\n        /* \"#utility.yul\":1066:1071   */\n      dup2\n        /* \"#utility.yul\":1039:1072   */\n      tag_133\n      jump\t// in\n    tag_132:\n        /* \"#utility.yul\":991:1078   */\n      swap3\n      swap2\n      pop\n      pop\n      jump\t// out\n        /* \"#utility.yul\":1084:1346   */\n    tag_15:\n      0x00\n        /* \"#utility.yul\":1192:1194   */\n      0x20\n        /* \"#utility.yul\":1180:1189   */\n      dup3\n        /* \"#utility.yul\":1171:1178   */\n      dup5\n        /* \"#utility.yul\":1167:1190   */\n      sub\n        /* \"#utility.yul\":1163:1195   */\n      slt\n        /* \"#utility.yul\":1160:1162   */\n      iszero\n      tag_135\n      jumpi\n        /* \"#utility.yul\":1208:1209   */\n      0x00\n        /* \"#utility.yul\":1205:1206   */\n      dup1\n        /* \"#utility.yul\":1198:1210   */\n      revert\n        /* \"#utility.yul\":1160:1162   */\n    tag_135:\n        /* \"#utility.yul\":1251:1252   */\n      0x00\n        /* \"#utility.yul\":1276:1329   */\n      tag_136\n        /* \"#utility.yul\":1321:1328   */\n      dup5\n        /* \"#utility.yul\":1312:1318   */\n      dup3\n        /* \"#utility.yul\":1301:1310   */\n      dup6\n        /* \"#utility.yul\":1297:1319   */\n      add\n        /* \"#utility.yul\":1276:1329   */\n      tag_118\n      jump\t// in\n    tag_136:\n        /* \"#utility.yul\":1266:1329   */\n      swap2\n      pop\n        /* \"#utility.yul\":1222:1339   */\n      pop\n        /* \"#utility.yul\":1150:1346   */\n      swap3\n      swap2\n      pop\n      pop\n      jump\t// out\n        /* \"#utility.yul\":1352:1757   */\n    tag_26:\n      0x00\n      dup1\n        /* \"#utility.yul\":1476:1478   */\n      0x40\n        /* \"#utility.yul\":1464:1473   */\n      dup4\n        /* \"#utility.yul\":1455:1462   */\n      dup6\n        /* \"#utility.yul\":1451:1474   */\n      sub\n        /* \"#utility.yul\":1447:1479   */\n      slt\n        /* \"#utility.yul\":1444:1446   */\n      iszero\n      tag_138\n      jumpi\n        /* \"#utility.yul\":1492:1493   */\n      0x00\n        /* \"#utility.yul\":1489:1490   */\n      dup1\n        /* \"#utility.yul\":1482:1494   */\n      revert\n        /* \"#utility.yul\":1444:1446   */\n    tag_138:\n        /* \"#utility.yul\":1535:1536   */\n      0x00\n        /* \"#utility.yul\":1560:1613   */\n      tag_139\n        /* \"#utility.yul\":1605:1612   */\n      dup6\n        /* \"#utility.yul\":1596:1602   */\n      dup3\n        /* \"#utility.yul\":1585:1594   */\n      dup7\n        /* \"#utility.yul\":1581:1603   */\n      add\n        /* \"#utility.yul\":1560:1613   */\n      tag_118\n      jump\t// in\n    tag_139:\n        /* \"#utility.yul\":1550:1613   */\n      swap3\n      pop\n        /* \"#utility.yul\":1506:1623   */\n      pop\n        /* \"#utility.yul\":1662:1664   */\n      0x20\n        /* \"#utility.yul\":1688:1740   */\n      tag_140\n        /* \"#utility.yul\":1732:1739   */\n      dup6\n        /* \"#utility.yul\":1723:1729   */\n      dup3\n        /* \"#utility.yul\":1712:1721   */\n      dup7\n        /* \"#utility.yul\":1708:1730   */\n      add\n        /* \"#utility.yul\":1688:1740   */\n      tag_122\n      jump\t// in\n    tag_140:\n        /* \"#utility.yul\":1678:1740   */\n      swap2\n      pop\n        /* \"#utility.yul\":1633:1750   */\n      pop\n        /* \"#utility.yul\":1434:1757   */\n      swap3\n      pop\n      swap3\n      swap1\n      pop\n      jump\t// out\n        /* \"#utility.yul\":1763:2170   */\n    tag_32:\n      0x00\n      dup1\n        /* \"#utility.yul\":1888:1890   */\n      0x40\n        /* \"#utility.yul\":1876:1885   */\n      dup4\n        /* \"#utility.yul\":1867:1874   */\n      dup6\n        /* \"#utility.yul\":1863:1886   */\n      sub\n        /* \"#utility.yul\":1859:1891   */\n      slt\n        /* \"#utility.yul\":1856:1858   */\n      iszero\n      tag_142\n      jumpi\n        /* \"#utility.yul\":1904:1905   */\n      0x00\n        /* \"#utility.yul\":1901:1902   */\n      dup1\n        /* \"#utility.yul\":1894:1906   */\n      revert\n        /* \"#utility.yul\":1856:1858   */\n    tag_142:\n        /* \"#utility.yul\":1947:1948   */\n      0x00\n        /* \"#utility.yul\":1972:2025   */\n      tag_143\n        /* \"#utility.yul\":2017:2024   */\n      dup6\n        /* \"#utility.yul\":2008:2014   */\n      dup3\n        /* \"#utility.yul\":1997:2006   */\n      dup7\n        /* \"#utility.yul\":1993:2015   */\n      add\n        /* \"#utility.yul\":1972:2025   */\n      tag_118\n      jump\t// in\n    tag_143:\n        /* \"#utility.yul\":1962:2025   */\n      swap3\n      pop\n        /* \"#utility.yul\":1918:2035   */\n      pop\n        /* \"#utility.yul\":2074:2076   */\n      0x20\n        /* \"#utility.yul\":2100:2153   */\n      tag_144\n        /* \"#utility.yul\":2145:2152   */\n      dup6\n        /* \"#utility.yul\":2136:2142   */\n      dup3\n        /* \"#utility.yul\":2125:2134   */\n      dup7\n        /* \"#utility.yul\":2121:2143   */\n      add\n        /* \"#utility.yul\":2100:2153   */\n      tag_130\n      jump\t// in\n    tag_144:\n        /* \"#utility.yul\":2090:2153   */\n      swap2\n      pop\n        /* \"#utility.yul\":2045:2163   */\n      pop\n        /* \"#utility.yul\":1846:2170   */\n      swap3\n      pop\n      swap3\n      swap1\n      pop\n      jump\t// out\n        /* \"#utility.yul\":2176:2436   */\n    tag_38:\n      0x00\n        /* \"#utility.yul\":2283:2285   */\n      0x20\n        /* \"#utility.yul\":2271:2280   */\n      dup3\n        /* \"#utility.yul\":2262:2269   */\n      dup5\n        /* \"#utility.yul\":2258:2281   */\n      sub\n        /* \"#utility.yul\":2254:2286   */\n      slt\n        /* \"#utility.yul\":2251:2253   */\n      iszero\n      tag_146\n      jumpi\n        /* \"#utility.yul\":2299:2300   */\n      0x00\n        /* \"#utility.yul\":2296:2297   */\n      dup1\n        /* \"#utility.yul\":2289:2301   */\n      revert\n        /* \"#utility.yul\":2251:2253   */\n    tag_146:\n        /* \"#utility.yul\":2342:2343   */\n      0x00\n        /* \"#utility.yul\":2367:2419   */\n      tag_147\n        /* \"#utility.yul\":2411:2418   */\n      dup5\n        /* \"#utility.yul\":2402:2408   */\n      dup3\n        /* \"#utility.yul\":2391:2400   */\n      dup6\n        /* \"#utility.yul\":2387:2409   */\n      add\n        /* \"#utility.yul\":2367:2419   */\n      tag_122\n      jump\t// in\n    tag_147:\n        /* \"#utility.yul\":2357:2419   */\n      swap2\n      pop\n        /* \"#utility.yul\":2313:2429   */\n      pop\n        /* \"#utility.yul\":2241:2436   */\n      swap3\n      swap2\n      pop\n      pop\n      jump\t// out\n        /* \"#utility.yul\":2442:3592   */\n    tag_11:\n      0x00\n      dup1\n      0x00\n      dup1\n        /* \"#utility.yul\":2641:2644   */\n      0x80\n        /* \"#utility.yul\":2629:2638   */\n      dup6\n        /* \"#utility.yul\":2620:2627   */\n      dup8\n        /* \"#utility.yul\":2616:2639   */\n      sub\n        /* \"#utility.yul\":2612:2645   */\n      slt\n        /* \"#utility.yul\":2609:2611   */\n      iszero\n      tag_149\n      jumpi\n        /* \"#utility.yul\":2658:2659   */\n      0x00\n        /* \"#utility.yul\":2655:2656   */\n      dup1\n        /* \"#utility.yul\":2648:2660   */\n      revert\n        /* \"#utility.yul\":2609:2611   */\n    tag_149:\n        /* \"#utility.yul\":2729:2730   */\n      0x00\n        /* \"#utility.yul\":2718:2727   */\n      dup6\n        /* \"#utility.yul\":2714:2731   */\n      add\n        /* \"#utility.yul\":2701:2732   */\n      calldataload\n        /* \"#utility.yul\":2759:2777   */\n      0xffffffffffffffff\n        /* \"#utility.yul\":2751:2757   */\n      dup2\n        /* \"#utility.yul\":2748:2778   */\n      gt\n        /* \"#utility.yul\":2745:2747   */\n      iszero\n      tag_150\n      jumpi\n        /* \"#utility.yul\":2791:2792   */\n      0x00\n        /* \"#utility.yul\":2788:2789   */\n      dup1\n        /* \"#utility.yul\":2781:2793   */\n      revert\n        /* \"#utility.yul\":2745:2747   */\n    tag_150:\n        /* \"#utility.yul\":2819:2882   */\n      tag_151\n        /* \"#utility.yul\":2874:2881   */\n      dup8\n        /* \"#utility.yul\":2865:2871   */\n      dup3\n        /* \"#utility.yul\":2854:2863   */\n      dup9\n        /* \"#utility.yul\":2850:2872   */\n      add\n        /* \"#utility.yul\":2819:2882   */\n      tag_126\n      jump\t// in\n    tag_151:\n        /* \"#utility.yul\":2809:2882   */\n      swap5\n      pop\n        /* \"#utility.yul\":2672:2892   */\n      pop\n        /* \"#utility.yul\":2959:2961   */\n      0x20\n        /* \"#utility.yul\":2948:2957   */\n      dup6\n        /* \"#utility.yul\":2944:2962   */\n      add\n        /* \"#utility.yul\":2931:2963   */\n      calldataload\n        /* \"#utility.yul\":2990:3008   */\n      0xffffffffffffffff\n        /* \"#utility.yul\":2982:2988   */\n      dup2\n        /* \"#utility.yul\":2979:3009   */\n      gt\n        /* \"#utility.yul\":2976:2978   */\n      iszero\n      tag_152\n      jumpi\n        /* \"#utility.yul\":3022:3023   */\n      0x00\n        /* \"#utility.yul\":3019:3020   */\n      dup1\n        /* \"#utility.yul\":3012:3024   */\n      revert\n        /* \"#utility.yul\":2976:2978   */\n    tag_152:\n        /* \"#utility.yul\":3050:3113   */\n      tag_153\n        /* \"#utility.yul\":3105:3112   */\n      dup8\n        /* \"#utility.yul\":3096:3102   */\n      dup3\n        /* \"#utility.yul\":3085:3094   */\n      dup9\n        /* \"#utility.yul\":3081:3103   */\n      add\n        /* \"#utility.yul\":3050:3113   */\n      tag_126\n      jump\t// in\n    tag_153:\n        /* \"#utility.yul\":3040:3113   */\n      swap4\n      pop\n        /* \"#utility.yul\":2902:3123   */\n      pop\n        /* \"#utility.yul\":3190:3192   */\n      0x40\n        /* \"#utility.yul\":3179:3188   */\n      dup6\n        /* \"#utility.yul\":3175:3193   */\n      add\n        /* \"#utility.yul\":3162:3194   */\n      calldataload\n        /* \"#utility.yul\":3221:3239   */\n      0xffffffffffffffff\n        /* \"#utility.yul\":3213:3219   */\n      dup2\n        /* \"#utility.yul\":3210:3240   */\n      gt\n        /* \"#utility.yul\":3207:3209   */\n      iszero\n      tag_154\n      jumpi\n        /* \"#utility.yul\":3253:3254   */\n      0x00\n        /* \"#utility.yul\":3250:3251   */\n      dup1\n        /* \"#utility.yul\":3243:3255   */\n      revert\n        /* \"#utility.yul\":3207:3209   */\n    tag_154:\n        /* \"#utility.yul\":3281:3344   */\n      tag_155\n        /* \"#utility.yul\":3336:3343   */\n      dup8\n        /* \"#utility.yul\":3327:3333   */\n      dup3\n        /* \"#utility.yul\":3316:3325   */\n      dup9\n        /* \"#utility.yul\":3312:3334   */\n      add\n        /* \"#utility.yul\":3281:3344   */\n      tag_126\n      jump\t// in\n    tag_155:\n        /* \"#utility.yul\":3271:3344   */\n      swap3\n      pop\n        /* \"#utility.yul\":3133:3354   */\n      pop\n        /* \"#utility.yul\":3421:3423   */\n      0x60\n        /* \"#utility.yul\":3410:3419   */\n      dup6\n        /* \"#utility.yul\":3406:3424   */\n      add\n        /* \"#utility.yul\":3393:3425   */\n      calldataload\n        /* \"#utility.yul\":3452:3470   */\n      0xffffffffffffffff\n        /* \"#utility.yul\":3444:3450   */\n      dup2\n        /* \"#utility.yul\":3441:3471   */\n      gt\n        /* \"#utility.yul\":3438:3440   */\n      iszero\n      tag_156\n      jumpi\n        /* \"#utility.yul\":3484:3485   */\n      0x00\n        /* \"#utility.yul\":3481:3482   */\n      dup1\n        /* \"#utility.yul\":3474:3486   */\n      revert\n        /* \"#utility.yul\":3438:3440   */\n    tag_156:\n        /* \"#utility.yul\":3512:3575   */\n      tag_157\n        /* \"#utility.yul\":3567:3574   */\n      dup8\n        /* \"#utility.yul\":3558:3564   */\n      dup3\n        /* \"#utility.yul\":3547:3556   */\n      dup9\n        /* \"#utility.yul\":3543:3565   */\n      add\n        /* \"#utility.yul\":3512:3575   */\n      tag_126\n      jump\t// in\n    tag_157:\n        /* \"#utility.yul\":3502:3575   */\n      swap2\n      pop\n        /* \"#utility.yul\":3364:3585   */\n      pop\n        /* \"#utility.yul\":2599:3592   */\n      swap3\n      swap6\n      swap2\n      swap5\n      pop\n      swap3\n      pop\n      jump\t// out\n        /* \"#utility.yul\":3598:3834   */\n    tag_158:\n      0x00\n        /* \"#utility.yul\":3742:3828   */\n      tag_160\n        /* \"#utility.yul\":3824:3827   */\n      dup4\n        /* \"#utility.yul\":3816:3822   */\n      dup4\n        /* \"#utility.yul\":3742:3828   */\n      tag_161\n      jump\t// in\n    tag_160:\n        /* \"#utility.yul\":3728:3828   */\n      swap1\n      pop\n        /* \"#utility.yul\":3718:3834   */\n      swap3\n      swap2\n      pop\n      pop\n      jump\t// out\n        /* \"#utility.yul\":3890:4961   */\n    tag_162:\n      0x00\n        /* \"#utility.yul\":4078:4152   */\n      tag_164\n        /* \"#utility.yul\":4146:4151   */\n      dup3\n        /* \"#utility.yul\":4078:4152   */\n      tag_165\n      jump\t// in\n    tag_164:\n        /* \"#utility.yul\":4168:4274   */\n      tag_166\n        /* \"#utility.yul\":4267:4273   */\n      dup2\n        /* \"#utility.yul\":4262:4265   */\n      dup6\n        /* \"#utility.yul\":4168:4274   */\n      tag_167\n      jump\t// in\n    tag_166:\n        /* \"#utility.yul\":4161:4274   */\n      swap4\n      pop\n        /* \"#utility.yul\":4300:4303   */\n      dup4\n        /* \"#utility.yul\":4345:4349   */\n      0x20\n        /* \"#utility.yul\":4337:4343   */\n      dup3\n        /* \"#utility.yul\":4333:4350   */\n      mul\n        /* \"#utility.yul\":4328:4331   */\n      dup6\n        /* \"#utility.yul\":4324:4351   */\n      add\n        /* \"#utility.yul\":4375:4451   */\n      tag_168\n        /* \"#utility.yul\":4445:4450   */\n      dup6\n        /* \"#utility.yul\":4375:4451   */\n      tag_169\n      jump\t// in\n    tag_168:\n        /* \"#utility.yul\":4474:4481   */\n      dup1\n        /* \"#utility.yul\":4505:4506   */\n      0x00\n        /* \"#utility.yul\":4490:4916   */\n    tag_170:\n        /* \"#utility.yul\":4515:4521   */\n      dup6\n        /* \"#utility.yul\":4512:4513   */\n      dup2\n        /* \"#utility.yul\":4509:4522   */\n      lt\n        /* \"#utility.yul\":4490:4916   */\n      iszero\n      tag_172\n      jumpi\n        /* \"#utility.yul\":4586:4595   */\n      dup5\n        /* \"#utility.yul\":4580:4584   */\n      dup5\n        /* \"#utility.yul\":4576:4596   */\n      sub\n        /* \"#utility.yul\":4571:4574   */\n      dup10\n        /* \"#utility.yul\":4564:4597   */\n      mstore\n        /* \"#utility.yul\":4637:4643   */\n      dup2\n        /* \"#utility.yul\":4631:4644   */\n      mload\n        /* \"#utility.yul\":4665:4769   */\n      tag_173\n        /* \"#utility.yul\":4764:4768   */\n      dup6\n        /* \"#utility.yul\":4749:4762   */\n      dup3\n        /* \"#utility.yul\":4665:4769   */\n      tag_158\n      jump\t// in\n    tag_173:\n        /* \"#utility.yul\":4657:4769   */\n      swap5\n      pop\n        /* \"#utility.yul\":4792:4872   */\n      tag_174\n        /* \"#utility.yul\":4865:4871   */\n      dup4\n        /* \"#utility.yul\":4792:4872   */\n      tag_175\n      jump\t// in\n    tag_174:\n        /* \"#utility.yul\":4782:4872   */\n      swap3\n      pop\n        /* \"#utility.yul\":4901:4905   */\n      0x20\n        /* \"#utility.yul\":4896:4899   */\n      dup11\n        /* \"#utility.yul\":4892:4906   */\n      add\n        /* \"#utility.yul\":4885:4906   */\n      swap10\n      pop\n        /* \"#utility.yul\":4550:4916   */\n      pop\n        /* \"#utility.yul\":4537:4538   */\n      0x01\n        /* \"#utility.yul\":4534:4535   */\n      dup2\n        /* \"#utility.yul\":4530:4539   */\n      add\n        /* \"#utility.yul\":4525:4539   */\n      swap1\n      pop\n        /* \"#utility.yul\":4490:4916   */\n      jump(tag_170)\n    tag_172:\n        /* \"#utility.yul\":4494:4508   */\n      pop\n        /* \"#utility.yul\":4932:4936   */\n      dup3\n        /* \"#utility.yul\":4925:4936   */\n      swap8\n      pop\n        /* \"#utility.yul\":4952:4955   */\n      dup8\n        /* \"#utility.yul\":4945:4955   */\n      swap6\n      pop\n        /* \"#utility.yul\":4054:4961   */\n      pop\n      pop\n      pop\n      pop\n      pop\n      swap3\n      swap2\n      pop\n      pop\n      jump\t// out\n        /* \"#utility.yul\":4967:5076   */\n    tag_176:\n        /* \"#utility.yul\":5048:5069   */\n      tag_178\n        /* \"#utility.yul\":5063:5068   */\n      dup2\n        /* \"#utility.yul\":5048:5069   */\n      tag_179\n      jump\t// in\n    tag_178:\n        /* \"#utility.yul\":5043:5046   */\n      dup3\n        /* \"#utility.yul\":5036:5070   */\n      mstore\n        /* \"#utility.yul\":5026:5076   */\n      pop\n      pop\n      jump\t// out\n        /* \"#utility.yul\":5082:5197   */\n    tag_180:\n        /* \"#utility.yul\":5167:5190   */\n      tag_182\n        /* \"#utility.yul\":5184:5189   */\n      dup2\n        /* \"#utility.yul\":5167:5190   */\n      tag_183\n      jump\t// in\n    tag_182:\n        /* \"#utility.yul\":5162:5165   */\n      dup3\n        /* \"#utility.yul\":5155:5191   */\n      mstore\n        /* \"#utility.yul\":5145:5197   */\n      pop\n      pop\n      jump\t// out\n        /* \"#utility.yul\":5203:5547   */\n    tag_184:\n      0x00\n        /* \"#utility.yul\":5309:5348   */\n      tag_186\n        /* \"#utility.yul\":5342:5347   */\n      dup3\n        /* \"#utility.yul\":5309:5348   */\n      tag_187\n      jump\t// in\n    tag_186:\n        /* \"#utility.yul\":5364:5425   */\n      tag_188\n        /* \"#utility.yul\":5418:5424   */\n      dup2\n        /* \"#utility.yul\":5413:5416   */\n      dup6\n        /* \"#utility.yul\":5364:5425   */\n      tag_189\n      jump\t// in\n    tag_188:\n        /* \"#utility.yul\":5357:5425   */\n      swap4\n      pop\n        /* \"#utility.yul\":5434:5486   */\n      tag_190\n        /* \"#utility.yul\":5479:5485   */\n      dup2\n        /* \"#utility.yul\":5474:5477   */\n      dup6\n        /* \"#utility.yul\":5467:5471   */\n      0x20\n        /* \"#utility.yul\":5460:5465   */\n      dup7\n        /* \"#utility.yul\":5456:5472   */\n      add\n        /* \"#utility.yul\":5434:5486   */\n      tag_191\n      jump\t// in\n    tag_190:\n        /* \"#utility.yul\":5511:5540   */\n      tag_192\n        /* \"#utility.yul\":5533:5539   */\n      dup2\n        /* \"#utility.yul\":5511:5540   */\n      tag_193\n      jump\t// in\n    tag_192:\n        /* \"#utility.yul\":5506:5509   */\n      dup5\n        /* \"#utility.yul\":5502:5541   */\n      add\n        /* \"#utility.yul\":5495:5541   */\n      swap2\n      pop\n        /* \"#utility.yul\":5285:5547   */\n      pop\n      swap3\n      swap2\n      pop\n      pop\n      jump\t// out\n        /* \"#utility.yul\":5553:5917   */\n    tag_194:\n      0x00\n        /* \"#utility.yul\":5669:5708   */\n      tag_196\n        /* \"#utility.yul\":5702:5707   */\n      dup3\n        /* \"#utility.yul\":5669:5708   */\n      tag_187\n      jump\t// in\n    tag_196:\n        /* \"#utility.yul\":5724:5795   */\n      tag_197\n        /* \"#utility.yul\":5788:5794   */\n      dup2\n        /* \"#utility.yul\":5783:5786   */\n      dup6\n        /* \"#utility.yul\":5724:5795   */\n      tag_198\n      jump\t// in\n    tag_197:\n        /* \"#utility.yul\":5717:5795   */\n      swap4\n      pop\n        /* \"#utility.yul\":5804:5856   */\n      tag_199\n        /* \"#utility.yul\":5849:5855   */\n      dup2\n        /* \"#utility.yul\":5844:5847   */\n      dup6\n        /* \"#utility.yul\":5837:5841   */\n      0x20\n        /* \"#utility.yul\":5830:5835   */\n      dup7\n        /* \"#utility.yul\":5826:5842   */\n      add\n        /* \"#utility.yul\":5804:5856   */\n      tag_191\n      jump\t// in\n    tag_199:\n        /* \"#utility.yul\":5881:5910   */\n      tag_200\n        /* \"#utility.yul\":5903:5909   */\n      dup2\n        /* \"#utility.yul\":5881:5910   */\n      tag_193\n      jump\t// in\n    tag_200:\n        /* \"#utility.yul\":5876:5879   */\n      dup5\n        /* \"#utility.yul\":5872:5911   */\n      add\n        /* \"#utility.yul\":5865:5911   */\n      swap2\n      pop\n        /* \"#utility.yul\":5645:5917   */\n      pop\n      swap3\n      swap2\n      pop\n      pop\n      jump\t// out\n        /* \"#utility.yul\":5969:7118   */\n    tag_161:\n      0x00\n        /* \"#utility.yul\":6104:6108   */\n      0x80\n        /* \"#utility.yul\":6099:6102   */\n      dup4\n        /* \"#utility.yul\":6095:6109   */\n      add\n        /* \"#utility.yul\":6191:6195   */\n      0x00\n        /* \"#utility.yul\":6184:6189   */\n      dup4\n        /* \"#utility.yul\":6180:6196   */\n      add\n        /* \"#utility.yul\":6174:6197   */\n      mload\n        /* \"#utility.yul\":6244:6247   */\n      dup5\n        /* \"#utility.yul\":6238:6242   */\n      dup3\n        /* \"#utility.yul\":6234:6248   */\n      sub\n        /* \"#utility.yul\":6227:6231   */\n      0x00\n        /* \"#utility.yul\":6222:6225   */\n      dup7\n        /* \"#utility.yul\":6218:6232   */\n      add\n        /* \"#utility.yul\":6211:6249   */\n      mstore\n        /* \"#utility.yul\":6270:6343   */\n      tag_202\n        /* \"#utility.yul\":6338:6342   */\n      dup3\n        /* \"#utility.yul\":6324:6336   */\n      dup3\n        /* \"#utility.yul\":6270:6343   */\n      tag_184\n      jump\t// in\n    tag_202:\n        /* \"#utility.yul\":6262:6343   */\n      swap2\n      pop\n        /* \"#utility.yul\":6119:6354   */\n      pop\n        /* \"#utility.yul\":6436:6440   */\n      0x20\n        /* \"#utility.yul\":6429:6434   */\n      dup4\n        /* \"#utility.yul\":6425:6441   */\n      add\n        /* \"#utility.yul\":6419:6442   */\n      mload\n        /* \"#utility.yul\":6489:6492   */\n      dup5\n        /* \"#utility.yul\":6483:6487   */\n      dup3\n        /* \"#utility.yul\":6479:6493   */\n      sub\n        /* \"#utility.yul\":6472:6476   */\n      0x20\n        /* \"#utility.yul\":6467:6470   */\n      dup7\n        /* \"#utility.yul\":6463:6477   */\n      add\n        /* \"#utility.yul\":6456:6494   */\n      mstore\n        /* \"#utility.yul\":6515:6588   */\n      tag_203\n        /* \"#utility.yul\":6583:6587   */\n      dup3\n        /* \"#utility.yul\":6569:6581   */\n      dup3\n        /* \"#utility.yul\":6515:6588   */\n      tag_184\n      jump\t// in\n    tag_203:\n        /* \"#utility.yul\":6507:6588   */\n      swap2\n      pop\n        /* \"#utility.yul\":6364:6599   */\n      pop\n        /* \"#utility.yul\":6681:6685   */\n      0x40\n        /* \"#utility.yul\":6674:6679   */\n      dup4\n        /* \"#utility.yul\":6670:6686   */\n      add\n        /* \"#utility.yul\":6664:6687   */\n      mload\n        /* \"#utility.yul\":6734:6737   */\n      dup5\n        /* \"#utility.yul\":6728:6732   */\n      dup3\n        /* \"#utility.yul\":6724:6738   */\n      sub\n        /* \"#utility.yul\":6717:6721   */\n      0x40\n        /* \"#utility.yul\":6712:6715   */\n      dup7\n        /* \"#utility.yul\":6708:6722   */\n      add\n        /* \"#utility.yul\":6701:6739   */\n      mstore\n        /* \"#utility.yul\":6760:6833   */\n      tag_204\n        /* \"#utility.yul\":6828:6832   */\n      dup3\n        /* \"#utility.yul\":6814:6826   */\n      dup3\n        /* \"#utility.yul\":6760:6833   */\n      tag_184\n      jump\t// in\n    tag_204:\n        /* \"#utility.yul\":6752:6833   */\n      swap2\n      pop\n        /* \"#utility.yul\":6609:6844   */\n      pop\n        /* \"#utility.yul\":6928:6932   */\n      0x60\n        /* \"#utility.yul\":6921:6926   */\n      dup4\n        /* \"#utility.yul\":6917:6933   */\n      add\n        /* \"#utility.yul\":6911:6934   */\n      mload\n        /* \"#utility.yul\":6981:6984   */\n      dup5\n        /* \"#utility.yul\":6975:6979   */\n      dup3\n        /* \"#utility.yul\":6971:6985   */\n      sub\n        /* \"#utility.yul\":6964:6968   */\n      0x60\n        /* \"#utility.yul\":6959:6962   */\n      dup7\n        /* \"#utility.yul\":6955:6969   */\n      add\n        /* \"#utility.yul\":6948:6986   */\n      mstore\n        /* \"#utility.yul\":7007:7080   */\n      tag_205\n        /* \"#utility.yul\":7075:7079   */\n      dup3\n        /* \"#utility.yul\":7061:7073   */\n      dup3\n        /* \"#utility.yul\":7007:7080   */\n      tag_184\n      jump\t// in\n    tag_205:\n        /* \"#utility.yul\":6999:7080   */\n      swap2\n      pop\n        /* \"#utility.yul\":6854:7091   */\n      pop\n        /* \"#utility.yul\":7108:7112   */\n      dup1\n        /* \"#utility.yul\":7101:7112   */\n      swap2\n      pop\n        /* \"#utility.yul\":6073:7118   */\n      pop\n      swap3\n      swap2\n      pop\n      pop\n      jump\t// out\n        /* \"#utility.yul\":7124:7577   */\n    tag_29:\n      0x00\n        /* \"#utility.yul\":7345:7347   */\n      0x20\n        /* \"#utility.yul\":7334:7343   */\n      dup3\n        /* \"#utility.yul\":7330:7348   */\n      add\n        /* \"#utility.yul\":7322:7348   */\n      swap1\n      pop\n        /* \"#utility.yul\":7394:7403   */\n      dup2\n        /* \"#utility.yul\":7388:7392   */\n      dup2\n        /* \"#utility.yul\":7384:7404   */\n      sub\n        /* \"#utility.yul\":7380:7381   */\n      0x00\n        /* \"#utility.yul\":7369:7378   */\n      dup4\n        /* \"#utility.yul\":7365:7382   */\n      add\n        /* \"#utility.yul\":7358:7405   */\n      mstore\n        /* \"#utility.yul\":7422:7570   */\n      tag_207\n        /* \"#utility.yul\":7565:7569   */\n      dup2\n        /* \"#utility.yul\":7556:7562   */\n      dup5\n        /* \"#utility.yul\":7422:7570   */\n      tag_162\n      jump\t// in\n    tag_207:\n        /* \"#utility.yul\":7414:7570   */\n      swap1\n      pop\n        /* \"#utility.yul\":7312:7577   */\n      swap3\n      swap2\n      pop\n      pop\n      jump\t// out\n        /* \"#utility.yul\":7583:7793   */\n    tag_23:\n      0x00\n        /* \"#utility.yul\":7708:7710   */\n      0x20\n        /* \"#utility.yul\":7697:7706   */\n      dup3\n        /* \"#utility.yul\":7693:7711   */\n      add\n        /* \"#utility.yul\":7685:7711   */\n      swap1\n      pop\n        /* \"#utility.yul\":7721:7786   */\n      tag_209\n        /* \"#utility.yul\":7783:7784   */\n      0x00\n        /* \"#utility.yul\":7772:7781   */\n      dup4\n        /* \"#utility.yul\":7768:7785   */\n      add\n        /* \"#utility.yul\":7759:7765   */\n      dup5\n        /* \"#utility.yul\":7721:7786   */\n      tag_176\n      jump\t// in\n    tag_209:\n        /* \"#utility.yul\":7675:7793   */\n      swap3\n      swap2\n      pop\n      pop\n      jump\t// out\n        /* \"#utility.yul\":7799:8017   */\n    tag_18:\n      0x00\n        /* \"#utility.yul\":7928:7930   */\n      0x20\n        /* \"#utility.yul\":7917:7926   */\n      dup3\n        /* \"#utility.yul\":7913:7931   */\n      add\n        /* \"#utility.yul\":7905:7931   */\n      swap1\n      pop\n        /* \"#utility.yul\":7941:8010   */\n      tag_211\n        /* \"#utility.yul\":8007:8008   */\n      0x00\n        /* \"#utility.yul\":7996:8005   */\n      dup4\n        /* \"#utility.yul\":7992:8009   */\n      add\n        /* \"#utility.yul\":7983:7989   */\n      dup5\n        /* \"#utility.yul\":7941:8010   */\n      tag_180\n      jump\t// in\n    tag_211:\n        /* \"#utility.yul\":7895:8017   */\n      swap3\n      swap2\n      pop\n      pop\n      jump\t// out\n        /* \"#utility.yul\":8023:8940   */\n    tag_35:\n      0x00\n        /* \"#utility.yul\":8318:8321   */\n      0x80\n        /* \"#utility.yul\":8307:8316   */\n      dup3\n        /* \"#utility.yul\":8303:8322   */\n      add\n        /* \"#utility.yul\":8295:8322   */\n      swap1\n      pop\n        /* \"#utility.yul\":8368:8377   */\n      dup2\n        /* \"#utility.yul\":8362:8366   */\n      dup2\n        /* \"#utility.yul\":8358:8378   */\n      sub\n        /* \"#utility.yul\":8354:8355   */\n      0x00\n        /* \"#utility.yul\":8343:8352   */\n      dup4\n        /* \"#utility.yul\":8339:8356   */\n      add\n        /* \"#utility.yul\":8332:8379   */\n      mstore\n        /* \"#utility.yul\":8396:8474   */\n      tag_213\n        /* \"#utility.yul\":8469:8473   */\n      dup2\n        /* \"#utility.yul\":8460:8466   */\n      dup8\n        /* \"#utility.yul\":8396:8474   */\n      tag_194\n      jump\t// in\n    tag_213:\n        /* \"#utility.yul\":8388:8474   */\n      swap1\n      pop\n        /* \"#utility.yul\":8521:8530   */\n      dup2\n        /* \"#utility.yul\":8515:8519   */\n      dup2\n        /* \"#utility.yul\":8511:8531   */\n      sub\n        /* \"#utility.yul\":8506:8508   */\n      0x20\n        /* \"#utility.yul\":8495:8504   */\n      dup4\n        /* \"#utility.yul\":8491:8509   */\n      add\n        /* \"#utility.yul\":8484:8532   */\n      mstore\n        /* \"#utility.yul\":8549:8627   */\n      tag_214\n        /* \"#utility.yul\":8622:8626   */\n      dup2\n        /* \"#utility.yul\":8613:8619   */\n      dup7\n        /* \"#utility.yul\":8549:8627   */\n      tag_194\n      jump\t// in\n    tag_214:\n        /* \"#utility.yul\":8541:8627   */\n      swap1\n      pop\n        /* \"#utility.yul\":8674:8683   */\n      dup2\n        /* \"#utility.yul\":8668:8672   */\n      dup2\n        /* \"#utility.yul\":8664:8684   */\n      sub\n        /* \"#utility.yul\":8659:8661   */\n      0x40\n        /* \"#utility.yul\":8648:8657   */\n      dup4\n        /* \"#utility.yul\":8644:8662   */\n      add\n        /* \"#utility.yul\":8637:8685   */\n      mstore\n        /* \"#utility.yul\":8702:8780   */\n      tag_215\n        /* \"#utility.yul\":8775:8779   */\n      dup2\n        /* \"#utility.yul\":8766:8772   */\n      dup6\n        /* \"#utility.yul\":8702:8780   */\n      tag_194\n      jump\t// in\n    tag_215:\n        /* \"#utility.yul\":8694:8780   */\n      swap1\n      pop\n        /* \"#utility.yul\":8827:8836   */\n      dup2\n        /* \"#utility.yul\":8821:8825   */\n      dup2\n        /* \"#utility.yul\":8817:8837   */\n      sub\n        /* \"#utility.yul\":8812:8814   */\n      0x60\n        /* \"#utility.yul\":8801:8810   */\n      dup4\n        /* \"#utility.yul\":8797:8815   */\n      add\n        /* \"#utility.yul\":8790:8838   */\n      mstore\n        /* \"#utility.yul\":8855:8933   */\n      tag_216\n        /* \"#utility.yul\":8928:8932   */\n      dup2\n        /* \"#utility.yul\":8919:8925   */\n      dup5\n        /* \"#utility.yul\":8855:8933   */\n      tag_194\n      jump\t// in\n    tag_216:\n        /* \"#utility.yul\":8847:8933   */\n      swap1\n      pop\n        /* \"#utility.yul\":8285:8940   */\n      swap6\n      swap5\n      pop\n      pop\n      pop\n      pop\n      pop\n      jump\t// out\n        /* \"#utility.yul\":8946:9075   */\n    tag_114:\n      0x00\n        /* \"#utility.yul\":9007:9027   */\n      tag_218\n      tag_219\n      jump\t// in\n    tag_218:\n        /* \"#utility.yul\":8997:9027   */\n      swap1\n      pop\n        /* \"#utility.yul\":9036:9069   */\n      tag_220\n        /* \"#utility.yul\":9064:9068   */\n      dup3\n        /* \"#utility.yul\":9056:9062   */\n      dup3\n        /* \"#utility.yul\":9036:9069   */\n      tag_221\n      jump\t// in\n    tag_220:\n        /* \"#utility.yul\":8987:9075   */\n      swap2\n      swap1\n      pop\n      jump\t// out\n        /* \"#utility.yul\":9081:9156   */\n    tag_219:\n      0x00\n        /* \"#utility.yul\":9147:9149   */\n      0x40\n        /* \"#utility.yul\":9141:9150   */\n      mload\n        /* \"#utility.yul\":9131:9150   */\n      swap1\n      pop\n        /* \"#utility.yul\":9121:9156   */\n      swap1\n      jump\t// out\n        /* \"#utility.yul\":9162:9470   */\n    tag_113:\n      0x00\n        /* \"#utility.yul\":9314:9332   */\n      0xffffffffffffffff\n        /* \"#utility.yul\":9306:9312   */\n      dup3\n        /* \"#utility.yul\":9303:9333   */\n      gt\n        /* \"#utility.yul\":9300:9302   */\n      iszero\n      tag_224\n      jumpi\n        /* \"#utility.yul\":9336:9354   */\n      tag_225\n      tag_226\n      jump\t// in\n    tag_225:\n        /* \"#utility.yul\":9300:9302   */\n    tag_224:\n        /* \"#utility.yul\":9374:9403   */\n      tag_227\n        /* \"#utility.yul\":9396:9402   */\n      dup3\n        /* \"#utility.yul\":9374:9403   */\n      tag_193\n      jump\t// in\n    tag_227:\n        /* \"#utility.yul\":9366:9403   */\n      swap1\n      pop\n        /* \"#utility.yul\":9458:9462   */\n      0x20\n        /* \"#utility.yul\":9452:9456   */\n      dup2\n        /* \"#utility.yul\":9448:9463   */\n      add\n        /* \"#utility.yul\":9440:9463   */\n      swap1\n      pop\n        /* \"#utility.yul\":9229:9470   */\n      swap2\n      swap1\n      pop\n      jump\t// out\n        /* \"#utility.yul\":9476:9628   */\n    tag_169:\n      0x00\n        /* \"#utility.yul\":9586:9589   */\n      dup2\n        /* \"#utility.yul\":9578:9589   */\n      swap1\n      pop\n        /* \"#utility.yul\":9616:9620   */\n      0x20\n        /* \"#utility.yul\":9611:9614   */\n      dup3\n        /* \"#utility.yul\":9607:9621   */\n      add\n        /* \"#utility.yul\":9599:9621   */\n      swap1\n      pop\n        /* \"#utility.yul\":9568:9628   */\n      swap2\n      swap1\n      pop\n      jump\t// out\n        /* \"#utility.yul\":9634:9768   */\n    tag_165:\n      0x00\n        /* \"#utility.yul\":9755:9760   */\n      dup2\n        /* \"#utility.yul\":9749:9761   */\n      mload\n        /* \"#utility.yul\":9739:9761   */\n      swap1\n      pop\n        /* \"#utility.yul\":9728:9768   */\n      swap2\n      swap1\n      pop\n      jump\t// out\n        /* \"#utility.yul\":9774:9873   */\n    tag_187:\n      0x00\n        /* \"#utility.yul\":9860:9865   */\n      dup2\n        /* \"#utility.yul\":9854:9866   */\n      mload\n        /* \"#utility.yul\":9844:9866   */\n      swap1\n      pop\n        /* \"#utility.yul\":9833:9873   */\n      swap2\n      swap1\n      pop\n      jump\t// out\n        /* \"#utility.yul\":9879:10012   */\n    tag_175:\n      0x00\n        /* \"#utility.yul\":10001:10005   */\n      0x20\n        /* \"#utility.yul\":9996:9999   */\n      dup3\n        /* \"#utility.yul\":9992:10006   */\n      add\n        /* \"#utility.yul\":9984:10006   */\n      swap1\n      pop\n        /* \"#utility.yul\":9974:10012   */\n      swap2\n      swap1\n      pop\n      jump\t// out\n        /* \"#utility.yul\":10018:10222   */\n    tag_167:\n      0x00\n        /* \"#utility.yul\":10171:10177   */\n      dup3\n        /* \"#utility.yul\":10166:10169   */\n      dup3\n        /* \"#utility.yul\":10159:10178   */\n      mstore\n        /* \"#utility.yul\":10211:10215   */\n      0x20\n        /* \"#utility.yul\":10206:10209   */\n      dup3\n        /* \"#utility.yul\":10202:10216   */\n      add\n        /* \"#utility.yul\":10187:10216   */\n      swap1\n      pop\n        /* \"#utility.yul\":10149:10222   */\n      swap3\n      swap2\n      pop\n      pop\n      jump\t// out\n        /* \"#utility.yul\":10228:10387   */\n    tag_189:\n      0x00\n        /* \"#utility.yul\":10336:10342   */\n      dup3\n        /* \"#utility.yul\":10331:10334   */\n      dup3\n        /* \"#utility.yul\":10324:10343   */\n      mstore\n        /* \"#utility.yul\":10376:10380   */\n      0x20\n        /* \"#utility.yul\":10371:10374   */\n      dup3\n        /* \"#utility.yul\":10367:10381   */\n      add\n        /* \"#utility.yul\":10352:10381   */\n      swap1\n      pop\n        /* \"#utility.yul\":10314:10387   */\n      swap3\n      swap2\n      pop\n      pop\n      jump\t// out\n        /* \"#utility.yul\":10393:10562   */\n    tag_198:\n      0x00\n        /* \"#utility.yul\":10511:10517   */\n      dup3\n        /* \"#utility.yul\":10506:10509   */\n      dup3\n        /* \"#utility.yul\":10499:10518   */\n      mstore\n        /* \"#utility.yul\":10551:10555   */\n      0x20\n        /* \"#utility.yul\":10546:10549   */\n      dup3\n        /* \"#utility.yul\":10542:10556   */\n      add\n        /* \"#utility.yul\":10527:10556   */\n      swap1\n      pop\n        /* \"#utility.yul\":10489:10562   */\n      swap3\n      swap2\n      pop\n      pop\n      jump\t// out\n        /* \"#utility.yul\":10568:10664   */\n    tag_235:\n      0x00\n        /* \"#utility.yul\":10634:10658   */\n      tag_237\n        /* \"#utility.yul\":10652:10657   */\n      dup3\n        /* \"#utility.yul\":10634:10658   */\n      tag_238\n      jump\t// in\n    tag_237:\n        /* \"#utility.yul\":10623:10658   */\n      swap1\n      pop\n        /* \"#utility.yul\":10613:10664   */\n      swap2\n      swap1\n      pop\n      jump\t// out\n        /* \"#utility.yul\":10670:10760   */\n    tag_179:\n      0x00\n        /* \"#utility.yul\":10747:10752   */\n      dup2\n        /* \"#utility.yul\":10740:10753   */\n      iszero\n        /* \"#utility.yul\":10733:10754   */\n      iszero\n        /* \"#utility.yul\":10722:10754   */\n      swap1\n      pop\n        /* \"#utility.yul\":10712:10760   */\n      swap2\n      swap1\n      pop\n      jump\t// out\n        /* \"#utility.yul\":10766:10915   */\n    tag_183:\n      0x00\n        /* \"#utility.yul\":10842:10908   */\n      0xffffffff00000000000000000000000000000000000000000000000000000000\n        /* \"#utility.yul\":10835:10840   */\n      dup3\n        /* \"#utility.yul\":10831:10909   */\n      and\n        /* \"#utility.yul\":10820:10909   */\n      swap1\n      pop\n        /* \"#utility.yul\":10810:10915   */\n      swap2\n      swap1\n      pop\n      jump\t// out\n        /* \"#utility.yul\":10921:11047   */\n    tag_238:\n      0x00\n        /* \"#utility.yul\":10998:11040   */\n      0xffffffffffffffffffffffffffffffffffffffff\n        /* \"#utility.yul\":10991:10996   */\n      dup3\n        /* \"#utility.yul\":10987:11041   */\n      and\n        /* \"#utility.yul\":10976:11041   */\n      swap1\n      pop\n        /* \"#utility.yul\":10966:11047   */\n      swap2\n      swap1\n      pop\n      jump\t// out\n        /* \"#utility.yul\":11053:11130   */\n    tag_242:\n      0x00\n        /* \"#utility.yul\":11119:11124   */\n      dup2\n        /* \"#utility.yul\":11108:11124   */\n      swap1\n      pop\n        /* \"#utility.yul\":11098:11130   */\n      swap2\n      swap1\n      pop\n      jump\t// out\n        /* \"#utility.yul\":11136:11290   */\n    tag_117:\n        /* \"#utility.yul\":11220:11226   */\n      dup3\n        /* \"#utility.yul\":11215:11218   */\n      dup2\n        /* \"#utility.yul\":11210:11213   */\n      dup4\n        /* \"#utility.yul\":11197:11227   */\n      calldatacopy\n        /* \"#utility.yul\":11282:11283   */\n      0x00\n        /* \"#utility.yul\":11273:11279   */\n      dup4\n        /* \"#utility.yul\":11268:11271   */\n      dup4\n        /* \"#utility.yul\":11264:11280   */\n      add\n        /* \"#utility.yul\":11257:11284   */\n      mstore\n        /* \"#utility.yul\":11187:11290   */\n      pop\n      pop\n      pop\n      jump\t// out\n        /* \"#utility.yul\":11296:11603   */\n    tag_191:\n        /* \"#utility.yul\":11364:11365   */\n      0x00\n        /* \"#utility.yul\":11374:11487   */\n    tag_246:\n        /* \"#utility.yul\":11388:11394   */\n      dup4\n        /* \"#utility.yul\":11385:11386   */\n      dup2\n        /* \"#utility.yul\":11382:11395   */\n      lt\n        /* \"#utility.yul\":11374:11487   */\n      iszero\n      tag_248\n      jumpi\n        /* \"#utility.yul\":11473:11474   */\n      dup1\n        /* \"#utility.yul\":11468:11471   */\n      dup3\n        /* \"#utility.yul\":11464:11475   */\n      add\n        /* \"#utility.yul\":11458:11476   */\n      mload\n        /* \"#utility.yul\":11454:11455   */\n      dup2\n        /* \"#utility.yul\":11449:11452   */\n      dup5\n        /* \"#utility.yul\":11445:11456   */\n      add\n        /* \"#utility.yul\":11438:11477   */\n      mstore\n        /* \"#utility.yul\":11410:11412   */\n      0x20\n        /* \"#utility.yul\":11407:11408   */\n      dup2\n        /* \"#utility.yul\":11403:11413   */\n      add\n        /* \"#utility.yul\":11398:11413   */\n      swap1\n      pop\n        /* \"#utility.yul\":11374:11487   */\n      jump(tag_246)\n    tag_248:\n        /* \"#utility.yul\":11505:11511   */\n      dup4\n        /* \"#utility.yul\":11502:11503   */\n      dup2\n        /* \"#utility.yul\":11499:11512   */\n      gt\n        /* \"#utility.yul\":11496:11498   */\n      iszero\n      tag_249\n      jumpi\n        /* \"#utility.yul\":11585:11586   */\n      0x00\n        /* \"#utility.yul\":11576:11582   */\n      dup5\n        /* \"#utility.yul\":11571:11574   */\n      dup5\n        /* \"#utility.yul\":11567:11583   */\n      add\n        /* \"#utility.yul\":11560:11587   */\n      mstore\n        /* \"#utility.yul\":11496:11498   */\n    tag_249:\n        /* \"#utility.yul\":11345:11603   */\n      pop\n      pop\n      pop\n      pop\n      jump\t// out\n        /* \"#utility.yul\":11609:11929   */\n    tag_54:\n      0x00\n        /* \"#utility.yul\":11690:11691   */\n      0x02\n        /* \"#utility.yul\":11684:11688   */\n      dup3\n        /* \"#utility.yul\":11680:11692   */\n      div\n        /* \"#utility.yul\":11670:11692   */\n      swap1\n      pop\n        /* \"#utility.yul\":11737:11738   */\n      0x01\n        /* \"#utility.yul\":11731:11735   */\n      dup3\n        /* \"#utility.yul\":11727:11739   */\n      and\n        /* \"#utility.yul\":11758:11776   */\n      dup1\n        /* \"#utility.yul\":11748:11750   */\n      tag_251\n      jumpi\n        /* \"#utility.yul\":11814:11818   */\n      0x7f\n        /* \"#utility.yul\":11806:11812   */\n      dup3\n        /* \"#utility.yul\":11802:11819   */\n      and\n        /* \"#utility.yul\":11792:11819   */\n      swap2\n      pop\n        /* \"#utility.yul\":11748:11750   */\n    tag_251:\n        /* \"#utility.yul\":11876:11878   */\n      0x20\n        /* \"#utility.yul\":11868:11874   */\n      dup3\n        /* \"#utility.yul\":11865:11879   */\n      lt\n        /* \"#utility.yul\":11845:11863   */\n      dup2\n        /* \"#utility.yul\":11842:11880   */\n      eq\n        /* \"#utility.yul\":11839:11841   */\n      iszero\n      tag_252\n      jumpi\n        /* \"#utility.yul\":11895:11913   */\n      tag_253\n      tag_254\n      jump\t// in\n    tag_253:\n        /* \"#utility.yul\":11839:11841   */\n    tag_252:\n        /* \"#utility.yul\":11660:11929   */\n      pop\n      swap2\n      swap1\n      pop\n      jump\t// out\n        /* \"#utility.yul\":11935:12216   */\n    tag_221:\n        /* \"#utility.yul\":12018:12045   */\n      tag_256\n        /* \"#utility.yul\":12040:12044   */\n      dup3\n        /* \"#utility.yul\":12018:12045   */\n      tag_193\n      jump\t// in\n    tag_256:\n        /* \"#utility.yul\":12010:12016   */\n      dup2\n        /* \"#utility.yul\":12006:12046   */\n      add\n        /* \"#utility.yul\":12148:12154   */\n      dup2\n        /* \"#utility.yul\":12136:12146   */\n      dup2\n        /* \"#utility.yul\":12133:12155   */\n      lt\n        /* \"#utility.yul\":12112:12130   */\n      0xffffffffffffffff\n        /* \"#utility.yul\":12100:12110   */\n      dup3\n        /* \"#utility.yul\":12097:12131   */\n      gt\n        /* \"#utility.yul\":12094:12156   */\n      or\n        /* \"#utility.yul\":12091:12093   */\n      iszero\n      tag_257\n      jumpi\n        /* \"#utility.yul\":12159:12177   */\n      tag_258\n      tag_226\n      jump\t// in\n    tag_258:\n        /* \"#utility.yul\":12091:12093   */\n    tag_257:\n        /* \"#utility.yul\":12199:12209   */\n      dup1\n        /* \"#utility.yul\":12195:12197   */\n      0x40\n        /* \"#utility.yul\":12188:12210   */\n      mstore\n        /* \"#utility.yul\":11978:12216   */\n      pop\n      pop\n      pop\n      jump\t// out\n        /* \"#utility.yul\":12222:12402   */\n    tag_254:\n        /* \"#utility.yul\":12270:12347   */\n      0x4e487b7100000000000000000000000000000000000000000000000000000000\n        /* \"#utility.yul\":12267:12268   */\n      0x00\n        /* \"#utility.yul\":12260:12348   */\n      mstore\n        /* \"#utility.yul\":12367:12371   */\n      0x22\n        /* \"#utility.yul\":12364:12365   */\n      0x04\n        /* \"#utility.yul\":12357:12372   */\n      mstore\n        /* \"#utility.yul\":12391:12395   */\n      0x24\n        /* \"#utility.yul\":12388:12389   */\n      0x00\n        /* \"#utility.yul\":12381:12396   */\n      revert\n        /* \"#utility.yul\":12408:12588   */\n    tag_226:\n        /* \"#utility.yul\":12456:12533   */\n      0x4e487b7100000000000000000000000000000000000000000000000000000000\n        /* \"#utility.yul\":12453:12454   */\n      0x00\n        /* \"#utility.yul\":12446:12534   */\n      mstore\n        /* \"#utility.yul\":12553:12557   */\n      0x41\n        /* \"#utility.yul\":12550:12551   */\n      0x04\n        /* \"#utility.yul\":12543:12558   */\n      mstore\n        /* \"#utility.yul\":12577:12581   */\n      0x24\n        /* \"#utility.yul\":12574:12575   */\n      0x00\n        /* \"#utility.yul\":12567:12582   */\n      revert\n        /* \"#utility.yul\":12594:12696   */\n    tag_193:\n      0x00\n        /* \"#utility.yul\":12686:12688   */\n      0x1f\n        /* \"#utility.yul\":12682:12689   */\n      not\n        /* \"#utility.yul\":12677:12679   */\n      0x1f\n        /* \"#utility.yul\":12670:12675   */\n      dup4\n        /* \"#utility.yul\":12666:12680   */\n      add\n        /* \"#utility.yul\":12662:12690   */\n      and\n        /* \"#utility.yul\":12652:12690   */\n      swap1\n      pop\n        /* \"#utility.yul\":12642:12696   */\n      swap2\n      swap1\n      pop\n      jump\t// out\n        /* \"#utility.yul\":12702:12824   */\n    tag_121:\n        /* \"#utility.yul\":12775:12799   */\n      tag_263\n        /* \"#utility.yul\":12793:12798   */\n      dup2\n        /* \"#utility.yul\":12775:12799   */\n      tag_235\n      jump\t// in\n    tag_263:\n        /* \"#utility.yul\":12768:12773   */\n      dup2\n        /* \"#utility.yul\":12765:12800   */\n      eq\n        /* \"#utility.yul\":12755:12757   */\n      tag_264\n      jumpi\n        /* \"#utility.yul\":12814:12815   */\n      0x00\n        /* \"#utility.yul\":12811:12812   */\n      dup1\n        /* \"#utility.yul\":12804:12816   */\n      revert\n        /* \"#utility.yul\":12755:12757   */\n    tag_264:\n        /* \"#utility.yul\":12745:12824   */\n      pop\n      jump\t// out\n        /* \"#utility.yul\":12830:12950   */\n    tag_125:\n        /* \"#utility.yul\":12902:12925   */\n      tag_266\n        /* \"#utility.yul\":12919:12924   */\n      dup2\n        /* \"#utility.yul\":12902:12925   */\n      tag_183\n      jump\t// in\n    tag_266:\n        /* \"#utility.yul\":12895:12900   */\n      dup2\n        /* \"#utility.yul\":12892:12926   */\n      eq\n        /* \"#utility.yul\":12882:12884   */\n      tag_267\n      jumpi\n        /* \"#utility.yul\":12940:12941   */\n      0x00\n        /* \"#utility.yul\":12937:12938   */\n      dup1\n        /* \"#utility.yul\":12930:12942   */\n      revert\n        /* \"#utility.yul\":12882:12884   */\n    tag_267:\n        /* \"#utility.yul\":12872:12950   */\n      pop\n      jump\t// out\n        /* \"#utility.yul\":12956:13078   */\n    tag_133:\n        /* \"#utility.yul\":13029:13053   */\n      tag_269\n        /* \"#utility.yul\":13047:13052   */\n      dup2\n        /* \"#utility.yul\":13029:13053   */\n      tag_242\n      jump\t// in\n    tag_269:\n        /* \"#utility.yul\":13022:13027   */\n      dup2\n        /* \"#utility.yul\":13019:13054   */\n      eq\n        /* \"#utility.yul\":13009:13011   */\n      tag_270\n      jumpi\n        /* \"#utility.yul\":13068:13069   */\n      0x00\n        /* \"#utility.yul\":13065:13066   */\n      dup1\n        /* \"#utility.yul\":13058:13070   */\n      revert\n        /* \"#utility.yul\":13009:13011   */\n    tag_270:\n        /* \"#utility.yul\":12999:13078   */\n      pop\n      jump\t// out\n\n    auxdata: 0xa264697066735822122005c696c6aeac3d5fb24e7032873511796a0d59e65a3a323f4fcd7c27ed02492464736f6c63430008030033\n}\n","bytecode":{"linkReferences":{},"object":"608060405234801561001057600080fd5b506111d1806100206000396000f3fe608060405234801561001057600080fd5b50600436106100625760003560e01c8063518cd7ca14610067578063b2dd5c0714610083578063c3c5a547146100b3578063cdebf222146100e3578063f54c4e4614610113578063f65bce7814610146575b600080fd5b610081600480360381019061007c9190610c05565b610162565b005b61009d60048036038101906100989190610b3b565b6102bc565b6040516100aa9190610e96565b60405180910390f35b6100cd60048036038101906100c89190610b3b565b6102dc565b6040516100da9190610e7b565b60405180910390f35b6100fd60048036038101906100f89190610b64565b6102fc565b60405161010a9190610e59565b60405180910390f35b61012d60048036038101906101289190610ba0565b610679565b60405161013d9493929190610eb1565b60405180910390f35b610160600480360381019061015b9190610bdc565b6108e6565b005b6000803373ffffffffffffffffffffffffffffffffffffffff1673ffffffffffffffffffffffffffffffffffffffff16815260200190815260200160002060009054906101000a900460ff166101b757600080fd5b600260003373ffffffffffffffffffffffffffffffffffffffff1673ffffffffffffffffffffffffffffffffffffffff1681526020019081526020016000206040518060800160405280868152602001858152602001848152602001838152509080600181540180825580915050600190039060005260206000209060040201600090919091909150600082015181600001908051906020019061025c9291906109f1565b5060208201518160010190805190602001906102799291906109f1565b5060408201518160020190805190602001906102969291906109f1565b5060608201518160030190805190602001906102b39291906109f1565b50505050505050565b60016020528060005260406000206000915054906101000a900460e01b81565b60006020528060005260406000206000915054906101000a900460ff1681565b6060817bffffffffffffffffffffffffffffffffffffffffffffffffffffffff1916600160008573ffffffffffffffffffffffffffffffffffffffff1673ffffffffffffffffffffffffffffffffffffffff16815260200190815260200160002060009054906101000a900460e01b7bffffffffffffffffffffffffffffffffffffffffffffffffffffffff19161461039457600080fd5b600260008473ffffffffffffffffffffffffffffffffffffffff1673ffffffffffffffffffffffffffffffffffffffff168152602001908152602001600020805480602002602001604051908101604052809291908181526020016000905b8282101561066d578382906000526020600020906004020160405180608001604052908160008201805461042690611084565b80601f016020809104026020016040519081016040528092919081815260200182805461045290611084565b801561049f5780601f106104745761010080835404028352916020019161049f565b820191906000526020600020905b81548152906001019060200180831161048257829003601f168201915b505050505081526020016001820180546104b890611084565b80601f01602080910402602001604051908101604052809291908181526020018280546104e490611084565b80156105315780601f1061050657610100808354040283529160200191610531565b820191906000526020600020905b81548152906001019060200180831161051457829003601f168201915b5050505050815260200160028201805461054a90611084565b80601f016020809104026020016040519081016040528092919081815260200182805461057690611084565b80156105c35780601f10610598576101008083540402835291602001916105c3565b820191906000526020600020905b8154815290600101906020018083116105a657829003601f168201915b505050505081526020016003820180546105dc90611084565b80601f016020809104026020016040519081016040528092919081815260200182805461060890611084565b80156106555780601f1061062a57610100808354040283529160200191610655565b820191906000526020600020905b81548152906001019060200180831161063857829003601f168201915b505050505081525050815260200190600101906103f3565b50505050905092915050565b6002602052816000526040600020818154811061069557600080fd5b9060005260206000209060040201600091509150508060000180546106b990611084565b80601f01602080910402602001604051908101604052809291908181526020018280546106e590611084565b80156107325780601f1061070757610100808354040283529160200191610732565b820191906000526020600020905b81548152906001019060200180831161071557829003601f168201915b50505050509080600101805461074790611084565b80601f016020809104026020016040519081016040528092919081815260200182805461077390611084565b80156107c05780601f10610795576101008083540402835291602001916107c0565b820191906000526020600020905b8154815290600101906020018083116107a357829003601f168201915b5050505050908060020180546107d590611084565b80601f016020809104026020016040519081016040528092919081815260200182805461080190611084565b801561084e5780601f106108235761010080835404028352916020019161084e565b820191906000526020600020905b81548152906001019060200180831161083157829003601f168201915b50505050509080600301805461086390611084565b80601f016020809104026020016040519081016040528092919081815260200182805461088f90611084565b80156108dc5780601f106108b1576101008083540402835291602001916108dc565b820191906000526020600020905b8154815290600101906020018083116108bf57829003601f168201915b5050505050905084565b6000803373ffffffffffffffffffffffffffffffffffffffff1673ffffffffffffffffffffffffffffffffffffffff16815260200190815260200160002060009054906101000a900460ff161561093c57600080fd5b80600160003373ffffffffffffffffffffffffffffffffffffffff1673ffffffffffffffffffffffffffffffffffffffff16815260200190815260200160002060006101000a81548163ffffffff021916908360e01c021790555060016000803373ffffffffffffffffffffffffffffffffffffffff1673ffffffffffffffffffffffffffffffffffffffff16815260200190815260200160002060006101000a81548160ff02191690831515021790555050565b8280546109fd90611084565b90600052602060002090601f016020900481019282610a1f5760008555610a66565b82601f10610a3857805160ff1916838001178555610a66565b82800160010185558215610a66579182015b82811115610a65578251825591602001919060010190610a4a565b5b509050610a739190610a77565b5090565b5b80821115610a90576000816000905550600101610a78565b5090565b6000610aa7610aa284610f37565b610f12565b905082815260208101848484011115610abf57600080fd5b610aca848285611042565b509392505050565b600081359050610ae181611156565b92915050565b600081359050610af68161116d565b92915050565b600082601f830112610b0d57600080fd5b8135610b1d848260208601610a94565b91505092915050565b600081359050610b3581611184565b92915050565b600060208284031215610b4d57600080fd5b6000610b5b84828501610ad2565b91505092915050565b60008060408385031215610b7757600080fd5b6000610b8585828601610ad2565b9250506020610b9685828601610ae7565b9150509250929050565b60008060408385031215610bb357600080fd5b6000610bc185828601610ad2565b9250506020610bd285828601610b26565b9150509250929050565b600060208284031215610bee57600080fd5b6000610bfc84828501610ae7565b91505092915050565b60008060008060808587031215610c1b57600080fd5b600085013567ffffffffffffffff811115610c3557600080fd5b610c4187828801610afc565b945050602085013567ffffffffffffffff811115610c5e57600080fd5b610c6a87828801610afc565b935050604085013567ffffffffffffffff811115610c8757600080fd5b610c9387828801610afc565b925050606085013567ffffffffffffffff811115610cb057600080fd5b610cbc87828801610afc565b91505092959194509250565b6000610cd48383610de1565b905092915050565b6000610ce782610f78565b610cf18185610f9b565b935083602082028501610d0385610f68565b8060005b85811015610d3f5784840389528151610d208582610cc8565b9450610d2b83610f8e565b925060208a01995050600181019050610d07565b50829750879550505050505092915050565b610d5a81610fe0565b82525050565b610d6981610fec565b82525050565b6000610d7a82610f83565b610d848185610fac565b9350610d94818560208601611051565b610d9d81611145565b840191505092915050565b6000610db382610f83565b610dbd8185610fbd565b9350610dcd818560208601611051565b610dd681611145565b840191505092915050565b60006080830160008301518482036000860152610dfe8282610d6f565b91505060208301518482036020860152610e188282610d6f565b91505060408301518482036040860152610e328282610d6f565b91505060608301518482036060860152610e4c8282610d6f565b9150508091505092915050565b60006020820190508181036000830152610e738184610cdc565b905092915050565b6000602082019050610e906000830184610d51565b92915050565b6000602082019050610eab6000830184610d60565b92915050565b60006080820190508181036000830152610ecb8187610da8565b90508181036020830152610edf8186610da8565b90508181036040830152610ef38185610da8565b90508181036060830152610f078184610da8565b905095945050505050565b6000610f1c610f2d565b9050610f2882826110b6565b919050565b6000604051905090565b600067ffffffffffffffff821115610f5257610f51611116565b5b610f5b82611145565b9050602081019050919050565b6000819050602082019050919050565b600081519050919050565b600081519050919050565b6000602082019050919050565b600082825260208201905092915050565b600082825260208201905092915050565b600082825260208201905092915050565b6000610fd982611018565b9050919050565b60008115159050919050565b60007fffffffff0000000000000000000000000000000000000000000000000000000082169050919050565b600073ffffffffffffffffffffffffffffffffffffffff82169050919050565b6000819050919050565b82818337600083830152505050565b60005b8381101561106f578082015181840152602081019050611054565b8381111561107e576000848401525b50505050565b6000600282049050600182168061109c57607f821691505b602082108114156110b0576110af6110e7565b5b50919050565b6110bf82611145565b810181811067ffffffffffffffff821117156110de576110dd611116565b5b80604052505050565b7f4e487b7100000000000000000000000000000000000000000000000000000000600052602260045260246000fd5b7f4e487b7100000000000000000000000000000000000000000000000000000000600052604160045260246000fd5b6000601f19601f8301169050919050565b61115f81610fce565b811461116a57600080fd5b50565b61117681610fec565b811461118157600080fd5b50565b61118d81611038565b811461119857600080fd5b5056fea264697066735822122005c696c6aeac3d5fb24e7032873511796a0d59e65a3a323f4fcd7c27ed02492464736f6c63430008030033","opcodes":"PUSH1 0x80 PUSH1 0x40 MSTORE CALLVALUE DUP1 ISZERO PUSH2 0x10 JUMPI PUSH1 0x0 DUP1 REVERT JUMPDEST POP PUSH2 0x11D1 DUP1 PUSH2 0x20 PUSH1 0x0 CODECOPY PUSH1 0x0 RETURN INVALID PUSH1 0x80 PUSH1 0x40 MSTORE CALLVALUE DUP1 ISZERO PUSH2 0x10 JUMPI PUSH1 0x0 DUP1 REVERT JUMPDEST POP PUSH1 0x4 CALLDATASIZE LT PUSH2 0x62 JUMPI PUSH1 0x0 CALLDATALOAD PUSH1 0xE0 SHR DUP1 PUSH4 0x518CD7CA EQ PUSH2 0x67 JUMPI DUP1 PUSH4 0xB2DD5C07 EQ PUSH2 0x83 JUMPI DUP1 PUSH4 0xC3C5A547 EQ PUSH2 0xB3 JUMPI DUP1 PUSH4 0xCDEBF222 EQ PUSH2 0xE3 JUMPI DUP1 PUSH4 0xF54C4E46 EQ PUSH2 0x113 JUMPI DUP1 PUSH4 0xF65BCE78 EQ PUSH2 0x146 JUMPI JUMPDEST PUSH1 0x0 DUP1 REVERT JUMPDEST PUSH2 0x81 PUSH1 0x4 DUP1 CALLDATASIZE SUB DUP2 ADD SWAP1 PUSH2 0x7C SWAP2 SWAP1 PUSH2 0xC05 JUMP JUMPDEST PUSH2 0x162 JUMP JUMPDEST STOP JUMPDEST PUSH2 0x9D PUSH1 0x4 DUP1 CALLDATASIZE SUB DUP2 ADD SWAP1 PUSH2 0x98 SWAP2 SWAP1 PUSH2 0xB3B JUMP JUMPDEST PUSH2 0x2BC JUMP JUMPDEST PUSH1 0x40 MLOAD PUSH2 0xAA SWAP2 SWAP1 PUSH2 0xE96 JUMP JUMPDEST PUSH1 0x40 MLOAD DUP1 SWAP2 SUB SWAP1 RETURN JUMPDEST PUSH2 0xCD PUSH1 0x4 DUP1 CALLDATASIZE SUB DUP2 ADD SWAP1 PUSH2 0xC8 SWAP2 SWAP1 PUSH2 0xB3B JUMP JUMPDEST PUSH2 0x2DC JUMP JUMPDEST PUSH1 0x40 MLOAD PUSH2 0xDA SWAP2 SWAP1 PUSH2 0xE7B JUMP JUMPDEST PUSH1 0x40 MLOAD DUP1 SWAP2 SUB SWAP1 RETURN JUMPDEST PUSH2 0xFD PUSH1 0x4 DUP1 CALLDATASIZE SUB DUP2 ADD SWAP1 PUSH2 0xF8 SWAP2 SWAP1 PUSH2 0xB64 JUMP JUMPDEST PUSH2 0x2FC JUMP JUMPDEST PUSH1 0x40 MLOAD PUSH2 0x10A SWAP2 SWAP1 PUSH2 0xE59 JUMP JUMPDEST PUSH1 0x40 MLOAD DUP1 SWAP2 SUB SWAP1 RETURN JUMPDEST PUSH2 0x12D PUSH1 0x4 DUP1 CALLDATASIZE SUB DUP2 ADD SWAP1 PUSH2 0x128 SWAP2 SWAP1 PUSH2 0xBA0 JUMP JUMPDEST PUSH2 0x679 JUMP JUMPDEST PUSH1 0x40 MLOAD PUSH2 0x13D SWAP5 SWAP4 SWAP3 SWAP2 SWAP1 PUSH2 0xEB1 JUMP JUMPDEST PUSH1 0x40 MLOAD DUP1 SWAP2 SUB SWAP1 RETURN JUMPDEST PUSH2 0x160 PUSH1 0x4 DUP1 CALLDATASIZE SUB DUP2 ADD SWAP1 PUSH2 0x15B SWAP2 SWAP1 PUSH2 0xBDC JUMP JUMPDEST PUSH2 0x8E6 JUMP JUMPDEST STOP JUMPDEST PUSH1 0x0 DUP1 CALLER PUSH20 0xFFFFFFFFFFFFFFFFFFFFFFFFFFFFFFFFFFFFFFFF AND PUSH20 0xFFFFFFFFFFFFFFFFFFFFFFFFFFFFFFFFFFFFFFFF AND DUP2 MSTORE PUSH1 0x20 ADD SWAP1 DUP2 MSTORE PUSH1 0x20 ADD PUSH1 0x0 KECCAK256 PUSH1 0x0 SWAP1 SLOAD SWAP1 PUSH2 0x100 EXP SWAP1 DIV PUSH1 0xFF AND PUSH2 0x1B7 JUMPI PUSH1 0x0 DUP1 REVERT JUMPDEST PUSH1 0x2 PUSH1 0x0 CALLER PUSH20 0xFFFFFFFFFFFFFFFFFFFFFFFFFFFFFFFFFFFFFFFF AND PUSH20 0xFFFFFFFFFFFFFFFFFFFFFFFFFFFFFFFFFFFFFFFF AND DUP2 MSTORE PUSH1 0x20 ADD SWAP1 DUP2 MSTORE PUSH1 0x20 ADD PUSH1 0x0 KECCAK256 PUSH1 0x40 MLOAD DUP1 PUSH1 0x80 ADD PUSH1 0x40 MSTORE DUP1 DUP7 DUP2 MSTORE PUSH1 0x20 ADD DUP6 DUP2 MSTORE PUSH1 0x20 ADD DUP5 DUP2 MSTORE PUSH1 0x20 ADD DUP4 DUP2 MSTORE POP SWAP1 DUP1 PUSH1 0x1 DUP2 SLOAD ADD DUP1 DUP3 SSTORE DUP1 SWAP2 POP POP PUSH1 0x1 SWAP1 SUB SWAP1 PUSH1 0x0 MSTORE PUSH1 0x20 PUSH1 0x0 KECCAK256 SWAP1 PUSH1 0x4 MUL ADD PUSH1 0x0 SWAP1 SWAP2 SWAP1 SWAP2 SWAP1 SWAP2 POP PUSH1 0x0 DUP3 ADD MLOAD DUP2 PUSH1 0x0 ADD SWAP1 DUP1 MLOAD SWAP1 PUSH1 0x20 ADD SWAP1 PUSH2 0x25C SWAP3 SWAP2 SWAP1 PUSH2 0x9F1 JUMP JUMPDEST POP PUSH1 0x20 DUP3 ADD MLOAD DUP2 PUSH1 0x1 ADD SWAP1 DUP1 MLOAD SWAP1 PUSH1 0x20 ADD SWAP1 PUSH2 0x279 SWAP3 SWAP2 SWAP1 PUSH2 0x9F1 JUMP JUMPDEST POP PUSH1 0x40 DUP3 ADD MLOAD DUP2 PUSH1 0x2 ADD SWAP1 DUP1 MLOAD SWAP1 PUSH1 0x20 ADD SWAP1 PUSH2 0x296 SWAP3 SWAP2 SWAP1 PUSH2 0x9F1 JUMP JUMPDEST POP PUSH1 0x60 DUP3 ADD MLOAD DUP2 PUSH1 0x3 ADD SWAP1 DUP1 MLOAD SWAP1 PUSH1 0x20 ADD SWAP1 PUSH2 0x2B3 SWAP3 SWAP2 SWAP1 PUSH2 0x9F1 JUMP JUMPDEST POP POP POP POP POP POP POP JUMP JUMPDEST PUSH1 0x1 PUSH1 0x20 MSTORE DUP1 PUSH1 0x0 MSTORE PUSH1 0x40 PUSH1 0x0 KECCAK256 PUSH1 0x0 SWAP2 POP SLOAD SWAP1 PUSH2 0x100 EXP SWAP1 DIV PUSH1 0xE0 SHL DUP2 JUMP JUMPDEST PUSH1 0x0 PUSH1 0x20 MSTORE DUP1 PUSH1 0x0 MSTORE PUSH1 0x40 PUSH1 0x0 KECCAK256 PUSH1 0x0 SWAP2 POP SLOAD SWAP1 PUSH2 0x100 EXP SWAP1 DIV PUSH1 0xFF AND DUP2 JUMP JUMPDEST PUSH1 0x60 DUP2 PUSH28 0xFFFFFFFFFFFFFFFFFFFFFFFFFFFFFFFFFFFFFFFFFFFFFFFFFFFFFFFF NOT AND PUSH1 0x1 PUSH1 0x0 DUP6 PUSH20 0xFFFFFFFFFFFFFFFFFFFFFFFFFFFFFFFFFFFFFFFF AND PUSH20 0xFFFFFFFFFFFFFFFFFFFFFFFFFFFFFFFFFFFFFFFF AND DUP2 MSTORE PUSH1 0x20 ADD SWAP1 DUP2 MSTORE PUSH1 0x20 ADD PUSH1 0x0 KECCAK256 PUSH1 0x0 SWAP1 SLOAD SWAP1 PUSH2 0x100 EXP SWAP1 DIV PUSH1 0xE0 SHL PUSH28 0xFFFFFFFFFFFFFFFFFFFFFFFFFFFFFFFFFFFFFFFFFFFFFFFFFFFFFFFF NOT AND EQ PUSH2 0x394 JUMPI PUSH1 0x0 DUP1 REVERT JUMPDEST PUSH1 0x2 PUSH1 0x0 DUP5 PUSH20 0xFFFFFFFFFFFFFFFFFFFFFFFFFFFFFFFFFFFFFFFF AND PUSH20 0xFFFFFFFFFFFFFFFFFFFFFFFFFFFFFFFFFFFFFFFF AND DUP2 MSTORE PUSH1 0x20 ADD SWAP1 DUP2 MSTORE PUSH1 0x20 ADD PUSH1 0x0 KECCAK256 DUP1 SLOAD DUP1 PUSH1 0x20 MUL PUSH1 0x20 ADD PUSH1 0x40 MLOAD SWAP1 DUP2 ADD PUSH1 0x40 MSTORE DUP1 SWAP3 SWAP2 SWAP1 DUP2 DUP2 MSTORE PUSH1 0x20 ADD PUSH1 0x0 SWAP1 JUMPDEST DUP3 DUP3 LT ISZERO PUSH2 0x66D JUMPI DUP4 DUP3 SWAP1 PUSH1 0x0 MSTORE PUSH1 0x20 PUSH1 0x0 KECCAK256 SWAP1 PUSH1 0x4 MUL ADD PUSH1 0x40 MLOAD DUP1 PUSH1 0x80 ADD PUSH1 0x40 MSTORE SWAP1 DUP2 PUSH1 0x0 DUP3 ADD DUP1 SLOAD PUSH2 0x426 SWAP1 PUSH2 0x1084 JUMP JUMPDEST DUP1 PUSH1 0x1F ADD PUSH1 0x20 DUP1 SWAP2 DIV MUL PUSH1 0x20 ADD PUSH1 0x40 MLOAD SWAP1 DUP2 ADD PUSH1 0x40 MSTORE DUP1 SWAP3 SWAP2 SWAP1 DUP2 DUP2 MSTORE PUSH1 0x20 ADD DUP3 DUP1 SLOAD PUSH2 0x452 SWAP1 PUSH2 0x1084 JUMP JUMPDEST DUP1 ISZERO PUSH2 0x49F JUMPI DUP1 PUSH1 0x1F LT PUSH2 0x474 JUMPI PUSH2 0x100 DUP1 DUP4 SLOAD DIV MUL DUP4 MSTORE SWAP2 PUSH1 0x20 ADD SWAP2 PUSH2 0x49F JUMP JUMPDEST DUP3 ADD SWAP2 SWAP1 PUSH1 0x0 MSTORE PUSH1 0x20 PUSH1 0x0 KECCAK256 SWAP1 JUMPDEST DUP2 SLOAD DUP2 MSTORE SWAP1 PUSH1 0x1 ADD SWAP1 PUSH1 0x20 ADD DUP1 DUP4 GT PUSH2 0x482 JUMPI DUP3 SWAP1 SUB PUSH1 0x1F AND DUP3 ADD SWAP2 JUMPDEST POP POP POP POP POP DUP2 MSTORE PUSH1 0x20 ADD PUSH1 0x1 DUP3 ADD DUP1 SLOAD PUSH2 0x4B8 SWAP1 PUSH2 0x1084 JUMP JUMPDEST DUP1 PUSH1 0x1F ADD PUSH1 0x20 DUP1 SWAP2 DIV MUL PUSH1 0x20 ADD PUSH1 0x40 MLOAD SWAP1 DUP2 ADD PUSH1 0x40 MSTORE DUP1 SWAP3 SWAP2 SWAP1 DUP2 DUP2 MSTORE PUSH1 0x20 ADD DUP3 DUP1 SLOAD PUSH2 0x4E4 SWAP1 PUSH2 0x1084 JUMP JUMPDEST DUP1 ISZERO PUSH2 0x531 JUMPI DUP1 PUSH1 0x1F LT PUSH2 0x506 JUMPI PUSH2 0x100 DUP1 DUP4 SLOAD DIV MUL DUP4 MSTORE SWAP2 PUSH1 0x20 ADD SWAP2 PUSH2 0x531 JUMP JUMPDEST DUP3 ADD SWAP2 SWAP1 PUSH1 0x0 MSTORE PUSH1 0x20 PUSH1 0x0 KECCAK256 SWAP1 JUMPDEST DUP2 SLOAD DUP2 MSTORE SWAP1 PUSH1 0x1 ADD SWAP1 PUSH1 0x20 ADD DUP1 DUP4 GT PUSH2 0x514 JUMPI DUP3 SWAP1 SUB PUSH1 0x1F AND DUP3 ADD SWAP2 JUMPDEST POP POP POP POP POP DUP2 MSTORE PUSH1 0x20 ADD PUSH1 0x2 DUP3 ADD DUP1 SLOAD PUSH2 0x54A SWAP1 PUSH2 0x1084 JUMP JUMPDEST DUP1 PUSH1 0x1F ADD PUSH1 0x20 DUP1 SWAP2 DIV MUL PUSH1 0x20 ADD PUSH1 0x40 MLOAD SWAP1 DUP2 ADD PUSH1 0x40 MSTORE DUP1 SWAP3 SWAP2 SWAP1 DUP2 DUP2 MSTORE PUSH1 0x20 ADD DUP3 DUP1 SLOAD PUSH2 0x576 SWAP1 PUSH2 0x1084 JUMP JUMPDEST DUP1 ISZERO PUSH2 0x5C3 JUMPI DUP1 PUSH1 0x1F LT PUSH2 0x598 JUMPI PUSH2 0x100 DUP1 DUP4 SLOAD DIV MUL DUP4 MSTORE SWAP2 PUSH1 0x20 ADD SWAP2 PUSH2 0x5C3 JUMP JUMPDEST DUP3 ADD SWAP2 SWAP1 PUSH1 0x0 MSTORE PUSH1 0x20 PUSH1 0x0 KECCAK256 SWAP1 JUMPDEST DUP2 SLOAD DUP2 MSTORE SWAP1 PUSH1 0x1 ADD SWAP1 PUSH1 0x20 ADD DUP1 DUP4 GT PUSH2 0x5A6 JUMPI DUP3 SWAP1 SUB PUSH1 0x1F AND DUP3 ADD SWAP2 JUMPDEST POP POP POP POP POP DUP2 MSTORE PUSH1 0x20 ADD PUSH1 0x3 DUP3 ADD DUP1 SLOAD PUSH2 0x5DC SWAP1 PUSH2 0x1084 JUMP JUMPDEST DUP1 PUSH1 0x1F ADD PUSH1 0x20 DUP1 SWAP2 DIV MUL PUSH1 0x20 ADD PUSH1 0x40 MLOAD SWAP1 DUP2 ADD PUSH1 0x40 MSTORE DUP1 SWAP3 SWAP2 SWAP1 DUP2 DUP2 MSTORE PUSH1 0x20 ADD DUP3 DUP1 SLOAD PUSH2 0x608 SWAP1 PUSH2 0x1084 JUMP JUMPDEST DUP1 ISZERO PUSH2 0x655 JUMPI DUP1 PUSH1 0x1F LT PUSH2 0x62A JUMPI PUSH2 0x100 DUP1 DUP4 SLOAD DIV MUL DUP4 MSTORE SWAP2 PUSH1 0x20 ADD SWAP2 PUSH2 0x655 JUMP JUMPDEST DUP3 ADD SWAP2 SWAP1 PUSH1 0x0 MSTORE PUSH1 0x20 PUSH1 0x0 KECCAK256 SWAP1 JUMPDEST DUP2 SLOAD DUP2 MSTORE SWAP1 PUSH1 0x1 ADD SWAP1 PUSH1 0x20 ADD DUP1 DUP4 GT PUSH2 0x638 JUMPI DUP3 SWAP1 SUB PUSH1 0x1F AND DUP3 ADD SWAP2 JUMPDEST POP POP POP POP POP DUP2 MSTORE POP POP DUP2 MSTORE PUSH1 0x20 ADD SWAP1 PUSH1 0x1 ADD SWAP1 PUSH2 0x3F3 JUMP JUMPDEST POP POP POP POP SWAP1 POP SWAP3 SWAP2 POP POP JUMP JUMPDEST PUSH1 0x2 PUSH1 0x20 MSTORE DUP2 PUSH1 0x0 MSTORE PUSH1 0x40 PUSH1 0x0 KECCAK256 DUP2 DUP2 SLOAD DUP2 LT PUSH2 0x695 JUMPI PUSH1 0x0 DUP1 REVERT JUMPDEST SWAP1 PUSH1 0x0 MSTORE PUSH1 0x20 PUSH1 0x0 KECCAK256 SWAP1 PUSH1 0x4 MUL ADD PUSH1 0x0 SWAP2 POP SWAP2 POP POP DUP1 PUSH1 0x0 ADD DUP1 SLOAD PUSH2 0x6B9 SWAP1 PUSH2 0x1084 JUMP JUMPDEST DUP1 PUSH1 0x1F ADD PUSH1 0x20 DUP1 SWAP2 DIV MUL PUSH1 0x20 ADD PUSH1 0x40 MLOAD SWAP1 DUP2 ADD PUSH1 0x40 MSTORE DUP1 SWAP3 SWAP2 SWAP1 DUP2 DUP2 MSTORE PUSH1 0x20 ADD DUP3 DUP1 SLOAD PUSH2 0x6E5 SWAP1 PUSH2 0x1084 JUMP JUMPDEST DUP1 ISZERO PUSH2 0x732 JUMPI DUP1 PUSH1 0x1F LT PUSH2 0x707 JUMPI PUSH2 0x100 DUP1 DUP4 SLOAD DIV MUL DUP4 MSTORE SWAP2 PUSH1 0x20 ADD SWAP2 PUSH2 0x732 JUMP JUMPDEST DUP3 ADD SWAP2 SWAP1 PUSH1 0x0 MSTORE PUSH1 0x20 PUSH1 0x0 KECCAK256 SWAP1 JUMPDEST DUP2 SLOAD DUP2 MSTORE SWAP1 PUSH1 0x1 ADD SWAP1 PUSH1 0x20 ADD DUP1 DUP4 GT PUSH2 0x715 JUMPI DUP3 SWAP1 SUB PUSH1 0x1F AND DUP3 ADD SWAP2 JUMPDEST POP POP POP POP POP SWAP1 DUP1 PUSH1 0x1 ADD DUP1 SLOAD PUSH2 0x747 SWAP1 PUSH2 0x1084 JUMP JUMPDEST DUP1 PUSH1 0x1F ADD PUSH1 0x20 DUP1 SWAP2 DIV MUL PUSH1 0x20 ADD PUSH1 0x40 MLOAD SWAP1 DUP2 ADD PUSH1 0x40 MSTORE DUP1 SWAP3 SWAP2 SWAP1 DUP2 DUP2 MSTORE PUSH1 0x20 ADD DUP3 DUP1 SLOAD PUSH2 0x773 SWAP1 PUSH2 0x1084 JUMP JUMPDEST DUP1 ISZERO PUSH2 0x7C0 JUMPI DUP1 PUSH1 0x1F LT PUSH2 0x795 JUMPI PUSH2 0x100 DUP1 DUP4 SLOAD DIV MUL DUP4 MSTORE SWAP2 PUSH1 0x20 ADD SWAP2 PUSH2 0x7C0 JUMP JUMPDEST DUP3 ADD SWAP2 SWAP1 PUSH1 0x0 MSTORE PUSH1 0x20 PUSH1 0x0 KECCAK256 SWAP1 JUMPDEST DUP2 SLOAD DUP2 MSTORE SWAP1 PUSH1 0x1 ADD SWAP1 PUSH1 0x20 ADD DUP1 DUP4 GT PUSH2 0x7A3 JUMPI DUP3 SWAP1 SUB PUSH1 0x1F AND DUP3 ADD SWAP2 JUMPDEST POP POP POP POP POP SWAP1 DUP1 PUSH1 0x2 ADD DUP1 SLOAD PUSH2 0x7D5 SWAP1 PUSH2 0x1084 JUMP JUMPDEST DUP1 PUSH1 0x1F ADD PUSH1 0x20 DUP1 SWAP2 DIV MUL PUSH1 0x20 ADD PUSH1 0x40 MLOAD SWAP1 DUP2 ADD PUSH1 0x40 MSTORE DUP1 SWAP3 SWAP2 SWAP1 DUP2 DUP2 MSTORE PUSH1 0x20 ADD DUP3 DUP1 SLOAD PUSH2 0x801 SWAP1 PUSH2 0x1084 JUMP JUMPDEST DUP1 ISZERO PUSH2 0x84E JUMPI DUP1 PUSH1 0x1F LT PUSH2 0x823 JUMPI PUSH2 0x100 DUP1 DUP4 SLOAD DIV MUL DUP4 MSTORE SWAP2 PUSH1 0x20 ADD SWAP2 PUSH2 0x84E JUMP JUMPDEST DUP3 ADD SWAP2 SWAP1 PUSH1 0x0 MSTORE PUSH1 0x20 PUSH1 0x0 KECCAK256 SWAP1 JUMPDEST DUP2 SLOAD DUP2 MSTORE SWAP1 PUSH1 0x1 ADD SWAP1 PUSH1 0x20 ADD DUP1 DUP4 GT PUSH2 0x831 JUMPI DUP3 SWAP1 SUB PUSH1 0x1F AND DUP3 ADD SWAP2 JUMPDEST POP POP POP POP POP SWAP1 DUP1 PUSH1 0x3 ADD DUP1 SLOAD PUSH2 0x863 SWAP1 PUSH2 0x1084 JUMP JUMPDEST DUP1 PUSH1 0x1F ADD PUSH1 0x20 DUP1 SWAP2 DIV MUL PUSH1 0x20 ADD PUSH1 0x40 MLOAD SWAP1 DUP2 ADD PUSH1 0x40 MSTORE DUP1 SWAP3 SWAP2 SWAP1 DUP2 DUP2 MSTORE PUSH1 0x20 ADD DUP3 DUP1 SLOAD PUSH2 0x88F SWAP1 PUSH2 0x1084 JUMP JUMPDEST DUP1 ISZERO PUSH2 0x8DC JUMPI DUP1 PUSH1 0x1F LT PUSH2 0x8B1 JUMPI PUSH2 0x100 DUP1 DUP4 SLOAD DIV MUL DUP4 MSTORE SWAP2 PUSH1 0x20 ADD SWAP2 PUSH2 0x8DC JUMP JUMPDEST DUP3 ADD SWAP2 SWAP1 PUSH1 0x0 MSTORE PUSH1 0x20 PUSH1 0x0 KECCAK256 SWAP1 JUMPDEST DUP2 SLOAD DUP2 MSTORE SWAP1 PUSH1 0x1 ADD SWAP1 PUSH1 0x20 ADD DUP1 DUP4 GT PUSH2 0x8BF JUMPI DUP3 SWAP1 SUB PUSH1 0x1F AND DUP3 ADD SWAP2 JUMPDEST POP POP POP POP POP SWAP1 POP DUP5 JUMP JUMPDEST PUSH1 0x0 DUP1 CALLER PUSH20 0xFFFFFFFFFFFFFFFFFFFFFFFFFFFFFFFFFFFFFFFF AND PUSH20 0xFFFFFFFFFFFFFFFFFFFFFFFFFFFFFFFFFFFFFFFF AND DUP2 MSTORE PUSH1 0x20 ADD SWAP1 DUP2 MSTORE PUSH1 0x20 ADD PUSH1 0x0 KECCAK256 PUSH1 0x0 SWAP1 SLOAD SWAP1 PUSH2 0x100 EXP SWAP1 DIV PUSH1 0xFF AND ISZERO PUSH2 0x93C JUMPI PUSH1 0x0 DUP1 REVERT JUMPDEST DUP1 PUSH1 0x1 PUSH1 0x0 CALLER PUSH20 0xFFFFFFFFFFFFFFFFFFFFFFFFFFFFFFFFFFFFFFFF AND PUSH20 0xFFFFFFFFFFFFFFFFFFFFFFFFFFFFFFFFFFFFFFFF AND DUP2 MSTORE PUSH1 0x20 ADD SWAP1 DUP2 MSTORE PUSH1 0x20 ADD PUSH1 0x0 KECCAK256 PUSH1 0x0 PUSH2 0x100 EXP DUP2 SLOAD DUP2 PUSH4 0xFFFFFFFF MUL NOT AND SWAP1 DUP4 PUSH1 0xE0 SHR MUL OR SWAP1 SSTORE POP PUSH1 0x1 PUSH1 0x0 DUP1 CALLER PUSH20 0xFFFFFFFFFFFFFFFFFFFFFFFFFFFFFFFFFFFFFFFF AND PUSH20 0xFFFFFFFFFFFFFFFFFFFFFFFFFFFFFFFFFFFFFFFF AND DUP2 MSTORE PUSH1 0x20 ADD SWAP1 DUP2 MSTORE PUSH1 0x20 ADD PUSH1 0x0 KECCAK256 PUSH1 0x0 PUSH2 0x100 EXP DUP2 SLOAD DUP2 PUSH1 0xFF MUL NOT AND SWAP1 DUP4 ISZERO ISZERO MUL OR SWAP1 SSTORE POP POP JUMP JUMPDEST DUP3 DUP1 SLOAD PUSH2 0x9FD SWAP1 PUSH2 0x1084 JUMP JUMPDEST SWAP1 PUSH1 0x0 MSTORE PUSH1 0x20 PUSH1 0x0 KECCAK256 SWAP1 PUSH1 0x1F ADD PUSH1 0x20 SWAP1 DIV DUP2 ADD SWAP3 DUP3 PUSH2 0xA1F JUMPI PUSH1 0x0 DUP6 SSTORE PUSH2 0xA66 JUMP JUMPDEST DUP3 PUSH1 0x1F LT PUSH2 0xA38 JUMPI DUP1 MLOAD PUSH1 0xFF NOT AND DUP4 DUP1 ADD OR DUP6 SSTORE PUSH2 0xA66 JUMP JUMPDEST DUP3 DUP1 ADD PUSH1 0x1 ADD DUP6 SSTORE DUP3 ISZERO PUSH2 0xA66 JUMPI SWAP2 DUP3 ADD JUMPDEST DUP3 DUP2 GT ISZERO PUSH2 0xA65 JUMPI DUP3 MLOAD DUP3 SSTORE SWAP2 PUSH1 0x20 ADD SWAP2 SWAP1 PUSH1 0x1 ADD SWAP1 PUSH2 0xA4A JUMP JUMPDEST JUMPDEST POP SWAP1 POP PUSH2 0xA73 SWAP2 SWAP1 PUSH2 0xA77 JUMP JUMPDEST POP SWAP1 JUMP JUMPDEST JUMPDEST DUP1 DUP3 GT ISZERO PUSH2 0xA90 JUMPI PUSH1 0x0 DUP2 PUSH1 0x0 SWAP1 SSTORE POP PUSH1 0x1 ADD PUSH2 0xA78 JUMP JUMPDEST POP SWAP1 JUMP JUMPDEST PUSH1 0x0 PUSH2 0xAA7 PUSH2 0xAA2 DUP5 PUSH2 0xF37 JUMP JUMPDEST PUSH2 0xF12 JUMP JUMPDEST SWAP1 POP DUP3 DUP2 MSTORE PUSH1 0x20 DUP2 ADD DUP5 DUP5 DUP5 ADD GT ISZERO PUSH2 0xABF JUMPI PUSH1 0x0 DUP1 REVERT JUMPDEST PUSH2 0xACA DUP5 DUP3 DUP6 PUSH2 0x1042 JUMP JUMPDEST POP SWAP4 SWAP3 POP POP POP JUMP JUMPDEST PUSH1 0x0 DUP2 CALLDATALOAD SWAP1 POP PUSH2 0xAE1 DUP2 PUSH2 0x1156 JUMP JUMPDEST SWAP3 SWAP2 POP POP JUMP JUMPDEST PUSH1 0x0 DUP2 CALLDATALOAD SWAP1 POP PUSH2 0xAF6 DUP2 PUSH2 0x116D JUMP JUMPDEST SWAP3 SWAP2 POP POP JUMP JUMPDEST PUSH1 0x0 DUP3 PUSH1 0x1F DUP4 ADD SLT PUSH2 0xB0D JUMPI PUSH1 0x0 DUP1 REVERT JUMPDEST DUP2 CALLDATALOAD PUSH2 0xB1D DUP5 DUP3 PUSH1 0x20 DUP7 ADD PUSH2 0xA94 JUMP JUMPDEST SWAP2 POP POP SWAP3 SWAP2 POP POP JUMP JUMPDEST PUSH1 0x0 DUP2 CALLDATALOAD SWAP1 POP PUSH2 0xB35 DUP2 PUSH2 0x1184 JUMP JUMPDEST SWAP3 SWAP2 POP POP JUMP JUMPDEST PUSH1 0x0 PUSH1 0x20 DUP3 DUP5 SUB SLT ISZERO PUSH2 0xB4D JUMPI PUSH1 0x0 DUP1 REVERT JUMPDEST PUSH1 0x0 PUSH2 0xB5B DUP5 DUP3 DUP6 ADD PUSH2 0xAD2 JUMP JUMPDEST SWAP2 POP POP SWAP3 SWAP2 POP POP JUMP JUMPDEST PUSH1 0x0 DUP1 PUSH1 0x40 DUP4 DUP6 SUB SLT ISZERO PUSH2 0xB77 JUMPI PUSH1 0x0 DUP1 REVERT JUMPDEST PUSH1 0x0 PUSH2 0xB85 DUP6 DUP3 DUP7 ADD PUSH2 0xAD2 JUMP JUMPDEST SWAP3 POP POP PUSH1 0x20 PUSH2 0xB96 DUP6 DUP3 DUP7 ADD PUSH2 0xAE7 JUMP JUMPDEST SWAP2 POP POP SWAP3 POP SWAP3 SWAP1 POP JUMP JUMPDEST PUSH1 0x0 DUP1 PUSH1 0x40 DUP4 DUP6 SUB SLT ISZERO PUSH2 0xBB3 JUMPI PUSH1 0x0 DUP1 REVERT JUMPDEST PUSH1 0x0 PUSH2 0xBC1 DUP6 DUP3 DUP7 ADD PUSH2 0xAD2 JUMP JUMPDEST SWAP3 POP POP PUSH1 0x20 PUSH2 0xBD2 DUP6 DUP3 DUP7 ADD PUSH2 0xB26 JUMP JUMPDEST SWAP2 POP POP SWAP3 POP SWAP3 SWAP1 POP JUMP JUMPDEST PUSH1 0x0 PUSH1 0x20 DUP3 DUP5 SUB SLT ISZERO PUSH2 0xBEE JUMPI PUSH1 0x0 DUP1 REVERT JUMPDEST PUSH1 0x0 PUSH2 0xBFC DUP5 DUP3 DUP6 ADD PUSH2 0xAE7 JUMP JUMPDEST SWAP2 POP POP SWAP3 SWAP2 POP POP JUMP JUMPDEST PUSH1 0x0 DUP1 PUSH1 0x0 DUP1 PUSH1 0x80 DUP6 DUP8 SUB SLT ISZERO PUSH2 0xC1B JUMPI PUSH1 0x0 DUP1 REVERT JUMPDEST PUSH1 0x0 DUP6 ADD CALLDATALOAD PUSH8 0xFFFFFFFFFFFFFFFF DUP2 GT ISZERO PUSH2 0xC35 JUMPI PUSH1 0x0 DUP1 REVERT JUMPDEST PUSH2 0xC41 DUP8 DUP3 DUP9 ADD PUSH2 0xAFC JUMP JUMPDEST SWAP5 POP POP PUSH1 0x20 DUP6 ADD CALLDATALOAD PUSH8 0xFFFFFFFFFFFFFFFF DUP2 GT ISZERO PUSH2 0xC5E JUMPI PUSH1 0x0 DUP1 REVERT JUMPDEST PUSH2 0xC6A DUP8 DUP3 DUP9 ADD PUSH2 0xAFC JUMP JUMPDEST SWAP4 POP POP PUSH1 0x40 DUP6 ADD CALLDATALOAD PUSH8 0xFFFFFFFFFFFFFFFF DUP2 GT ISZERO PUSH2 0xC87 JUMPI PUSH1 0x0 DUP1 REVERT JUMPDEST PUSH2 0xC93 DUP8 DUP3 DUP9 ADD PUSH2 0xAFC JUMP JUMPDEST SWAP3 POP POP PUSH1 0x60 DUP6 ADD CALLDATALOAD PUSH8 0xFFFFFFFFFFFFFFFF DUP2 GT ISZERO PUSH2 0xCB0 JUMPI PUSH1 0x0 DUP1 REVERT JUMPDEST PUSH2 0xCBC DUP8 DUP3 DUP9 ADD PUSH2 0xAFC JUMP JUMPDEST SWAP2 POP POP SWAP3 SWAP6 SWAP2 SWAP5 POP SWAP3 POP JUMP JUMPDEST PUSH1 0x0 PUSH2 0xCD4 DUP4 DUP4 PUSH2 0xDE1 JUMP JUMPDEST SWAP1 POP SWAP3 SWAP2 POP POP JUMP JUMPDEST PUSH1 0x0 PUSH2 0xCE7 DUP3 PUSH2 0xF78 JUMP JUMPDEST PUSH2 0xCF1 DUP2 DUP6 PUSH2 0xF9B JUMP JUMPDEST SWAP4 POP DUP4 PUSH1 0x20 DUP3 MUL DUP6 ADD PUSH2 0xD03 DUP6 PUSH2 0xF68 JUMP JUMPDEST DUP1 PUSH1 0x0 JUMPDEST DUP6 DUP2 LT ISZERO PUSH2 0xD3F JUMPI DUP5 DUP5 SUB DUP10 MSTORE DUP2 MLOAD PUSH2 0xD20 DUP6 DUP3 PUSH2 0xCC8 JUMP JUMPDEST SWAP5 POP PUSH2 0xD2B DUP4 PUSH2 0xF8E JUMP JUMPDEST SWAP3 POP PUSH1 0x20 DUP11 ADD SWAP10 POP POP PUSH1 0x1 DUP2 ADD SWAP1 POP PUSH2 0xD07 JUMP JUMPDEST POP DUP3 SWAP8 POP DUP8 SWAP6 POP POP POP POP POP POP SWAP3 SWAP2 POP POP JUMP JUMPDEST PUSH2 0xD5A DUP2 PUSH2 0xFE0 JUMP JUMPDEST DUP3 MSTORE POP POP JUMP JUMPDEST PUSH2 0xD69 DUP2 PUSH2 0xFEC JUMP JUMPDEST DUP3 MSTORE POP POP JUMP JUMPDEST PUSH1 0x0 PUSH2 0xD7A DUP3 PUSH2 0xF83 JUMP JUMPDEST PUSH2 0xD84 DUP2 DUP6 PUSH2 0xFAC JUMP JUMPDEST SWAP4 POP PUSH2 0xD94 DUP2 DUP6 PUSH1 0x20 DUP7 ADD PUSH2 0x1051 JUMP JUMPDEST PUSH2 0xD9D DUP2 PUSH2 0x1145 JUMP JUMPDEST DUP5 ADD SWAP2 POP POP SWAP3 SWAP2 POP POP JUMP JUMPDEST PUSH1 0x0 PUSH2 0xDB3 DUP3 PUSH2 0xF83 JUMP JUMPDEST PUSH2 0xDBD DUP2 DUP6 PUSH2 0xFBD JUMP JUMPDEST SWAP4 POP PUSH2 0xDCD DUP2 DUP6 PUSH1 0x20 DUP7 ADD PUSH2 0x1051 JUMP JUMPDEST PUSH2 0xDD6 DUP2 PUSH2 0x1145 JUMP JUMPDEST DUP5 ADD SWAP2 POP POP SWAP3 SWAP2 POP POP JUMP JUMPDEST PUSH1 0x0 PUSH1 0x80 DUP4 ADD PUSH1 0x0 DUP4 ADD MLOAD DUP5 DUP3 SUB PUSH1 0x0 DUP7 ADD MSTORE PUSH2 0xDFE DUP3 DUP3 PUSH2 0xD6F JUMP JUMPDEST SWAP2 POP POP PUSH1 0x20 DUP4 ADD MLOAD DUP5 DUP3 SUB PUSH1 0x20 DUP7 ADD MSTORE PUSH2 0xE18 DUP3 DUP3 PUSH2 0xD6F JUMP JUMPDEST SWAP2 POP POP PUSH1 0x40 DUP4 ADD MLOAD DUP5 DUP3 SUB PUSH1 0x40 DUP7 ADD MSTORE PUSH2 0xE32 DUP3 DUP3 PUSH2 0xD6F JUMP JUMPDEST SWAP2 POP POP PUSH1 0x60 DUP4 ADD MLOAD DUP5 DUP3 SUB PUSH1 0x60 DUP7 ADD MSTORE PUSH2 0xE4C DUP3 DUP3 PUSH2 0xD6F JUMP JUMPDEST SWAP2 POP POP DUP1 SWAP2 POP POP SWAP3 SWAP2 POP POP JUMP JUMPDEST PUSH1 0x0 PUSH1 0x20 DUP3 ADD SWAP1 POP DUP2 DUP2 SUB PUSH1 0x0 DUP4 ADD MSTORE PUSH2 0xE73 DUP2 DUP5 PUSH2 0xCDC JUMP JUMPDEST SWAP1 POP SWAP3 SWAP2 POP POP JUMP JUMPDEST PUSH1 0x0 PUSH1 0x20 DUP3 ADD SWAP1 POP PUSH2 0xE90 PUSH1 0x0 DUP4 ADD DUP5 PUSH2 0xD51 JUMP JUMPDEST SWAP3 SWAP2 POP POP JUMP JUMPDEST PUSH1 0x0 PUSH1 0x20 DUP3 ADD SWAP1 POP PUSH2 0xEAB PUSH1 0x0 DUP4 ADD DUP5 PUSH2 0xD60 JUMP JUMPDEST SWAP3 SWAP2 POP POP JUMP JUMPDEST PUSH1 0x0 PUSH1 0x80 DUP3 ADD SWAP1 POP DUP2 DUP2 SUB PUSH1 0x0 DUP4 ADD MSTORE PUSH2 0xECB DUP2 DUP8 PUSH2 0xDA8 JUMP JUMPDEST SWAP1 POP DUP2 DUP2 SUB PUSH1 0x20 DUP4 ADD MSTORE PUSH2 0xEDF DUP2 DUP7 PUSH2 0xDA8 JUMP JUMPDEST SWAP1 POP DUP2 DUP2 SUB PUSH1 0x40 DUP4 ADD MSTORE PUSH2 0xEF3 DUP2 DUP6 PUSH2 0xDA8 JUMP JUMPDEST SWAP1 POP DUP2 DUP2 SUB PUSH1 0x60 DUP4 ADD MSTORE PUSH2 0xF07 DUP2 DUP5 PUSH2 0xDA8 JUMP JUMPDEST SWAP1 POP SWAP6 SWAP5 POP POP POP POP POP JUMP JUMPDEST PUSH1 0x0 PUSH2 0xF1C PUSH2 0xF2D JUMP JUMPDEST SWAP1 POP PUSH2 0xF28 DUP3 DUP3 PUSH2 0x10B6 JUMP JUMPDEST SWAP2 SWAP1 POP JUMP JUMPDEST PUSH1 0x0 PUSH1 0x40 MLOAD SWAP1 POP SWAP1 JUMP JUMPDEST PUSH1 0x0 PUSH8 0xFFFFFFFFFFFFFFFF DUP3 GT ISZERO PUSH2 0xF52 JUMPI PUSH2 0xF51 PUSH2 0x1116 JUMP JUMPDEST JUMPDEST PUSH2 0xF5B DUP3 PUSH2 0x1145 JUMP JUMPDEST SWAP1 POP PUSH1 0x20 DUP2 ADD SWAP1 POP SWAP2 SWAP1 POP JUMP JUMPDEST PUSH1 0x0 DUP2 SWAP1 POP PUSH1 0x20 DUP3 ADD SWAP1 POP SWAP2 SWAP1 POP JUMP JUMPDEST PUSH1 0x0 DUP2 MLOAD SWAP1 POP SWAP2 SWAP1 POP JUMP JUMPDEST PUSH1 0x0 DUP2 MLOAD SWAP1 POP SWAP2 SWAP1 POP JUMP JUMPDEST PUSH1 0x0 PUSH1 0x20 DUP3 ADD SWAP1 POP SWAP2 SWAP1 POP JUMP JUMPDEST PUSH1 0x0 DUP3 DUP3 MSTORE PUSH1 0x20 DUP3 ADD SWAP1 POP SWAP3 SWAP2 POP POP JUMP JUMPDEST PUSH1 0x0 DUP3 DUP3 MSTORE PUSH1 0x20 DUP3 ADD SWAP1 POP SWAP3 SWAP2 POP POP JUMP JUMPDEST PUSH1 0x0 DUP3 DUP3 MSTORE PUSH1 0x20 DUP3 ADD SWAP1 POP SWAP3 SWAP2 POP POP JUMP JUMPDEST PUSH1 0x0 PUSH2 0xFD9 DUP3 PUSH2 0x1018 JUMP JUMPDEST SWAP1 POP SWAP2 SWAP1 POP JUMP JUMPDEST PUSH1 0x0 DUP2 ISZERO ISZERO SWAP1 POP SWAP2 SWAP1 POP JUMP JUMPDEST PUSH1 0x0 PUSH32 0xFFFFFFFF00000000000000000000000000000000000000000000000000000000 DUP3 AND SWAP1 POP SWAP2 SWAP1 POP JUMP JUMPDEST PUSH1 0x0 PUSH20 0xFFFFFFFFFFFFFFFFFFFFFFFFFFFFFFFFFFFFFFFF DUP3 AND SWAP1 POP SWAP2 SWAP1 POP JUMP JUMPDEST PUSH1 0x0 DUP2 SWAP1 POP SWAP2 SWAP1 POP JUMP JUMPDEST DUP3 DUP2 DUP4 CALLDATACOPY PUSH1 0x0 DUP4 DUP4 ADD MSTORE POP POP POP JUMP JUMPDEST PUSH1 0x0 JUMPDEST DUP4 DUP2 LT ISZERO PUSH2 0x106F JUMPI DUP1 DUP3 ADD MLOAD DUP2 DUP5 ADD MSTORE PUSH1 0x20 DUP2 ADD SWAP1 POP PUSH2 0x1054 JUMP JUMPDEST DUP4 DUP2 GT ISZERO PUSH2 0x107E JUMPI PUSH1 0x0 DUP5 DUP5 ADD MSTORE JUMPDEST POP POP POP POP JUMP JUMPDEST PUSH1 0x0 PUSH1 0x2 DUP3 DIV SWAP1 POP PUSH1 0x1 DUP3 AND DUP1 PUSH2 0x109C JUMPI PUSH1 0x7F DUP3 AND SWAP2 POP JUMPDEST PUSH1 0x20 DUP3 LT DUP2 EQ ISZERO PUSH2 0x10B0 JUMPI PUSH2 0x10AF PUSH2 0x10E7 JUMP JUMPDEST JUMPDEST POP SWAP2 SWAP1 POP JUMP JUMPDEST PUSH2 0x10BF DUP3 PUSH2 0x1145 JUMP JUMPDEST DUP2 ADD DUP2 DUP2 LT PUSH8 0xFFFFFFFFFFFFFFFF DUP3 GT OR ISZERO PUSH2 0x10DE JUMPI PUSH2 0x10DD PUSH2 0x1116 JUMP JUMPDEST JUMPDEST DUP1 PUSH1 0x40 MSTORE POP POP POP JUMP JUMPDEST PUSH32 0x4E487B7100000000000000000000000000000000000000000000000000000000 PUSH1 0x0 MSTORE PUSH1 0x22 PUSH1 0x4 MSTORE PUSH1 0x24 PUSH1 0x0 REVERT JUMPDEST PUSH32 0x4E487B7100000000000000000000000000000000000000000000000000000000 PUSH1 0x0 MSTORE PUSH1 0x41 PUSH1 0x4 MSTORE PUSH1 0x24 PUSH1 0x0 REVERT JUMPDEST PUSH1 0x0 PUSH1 0x1F NOT PUSH1 0x1F DUP4 ADD AND SWAP1 POP SWAP2 SWAP1 POP JUMP JUMPDEST PUSH2 0x115F DUP2 PUSH2 0xFCE JUMP JUMPDEST DUP2 EQ PUSH2 0x116A JUMPI PUSH1 0x0 DUP1 REVERT JUMPDEST POP JUMP JUMPDEST PUSH2 0x1176 DUP2 PUSH2 0xFEC JUMP JUMPDEST DUP2 EQ PUSH2 0x1181 JUMPI PUSH1 0x0 DUP1 REVERT JUMPDEST POP JUMP JUMPDEST PUSH2 0x118D DUP2 PUSH2 0x1038 JUMP JUMPDEST DUP2 EQ PUSH2 0x1198 JUMPI PUSH1 0x0 DUP1 REVERT JUMPDEST POP JUMP INVALID LOG2 PUSH5 0x6970667358 0x22 SLT KECCAK256 SDIV 0xC6 SWAP7 0xC6 0xAE 0xAC RETURNDATASIZE 0x5F 0xB2 0x4E PUSH17 0x32873511796A0D59E65A3A323F4FCD7C27 0xED MUL 0x49 0x24 PUSH5 0x736F6C6343 STOP ADDMOD SUB STOP CALLER "},"gasEstimates":{"creation":{"codeDepositCost":"912200","executionCost":"948","totalCost":"913148"},"external":{"display(address,bytes4)":"infinite","file(address,uint256)":"infinite","isRegistered(address)":"1567","registerTodrive(bytes4)":"43357","registered(address)":"1545","upload(string,string,string,string)":"infinite"}},"methodIdentifiers":{"display(address,bytes4)":"cdebf222","file(address,uint256)":"f54c4e46","isRegistered(address)":"c3c5a547","registerTodrive(bytes4)":"f65bce78","registered(address)":"b2dd5c07","upload(string,string,string,string)":"518cd7ca"}},"storageLayout":{"storage":[{"astId":14,"contract":"Drive.sol:Drive","label":"isRegistered","offset":0,"slot":"0","type":"t_mapping(t_address,t_bool)"},{"astId":18,"contract":"Drive.sol:Drive","label":"registered","offset":0,"slot":"1","type":"t_mapping(t_address,t_bytes4)"},{"astId":24,"contract":"Drive.sol:Drive","label":"file","offset":0,"slot":"2","type":"t_mapping(t_address,t_array(t_struct(File)10_storage)dyn_storage)"}],"types":{"t_address":{"encoding":"inplace","label":"address","numberOfBytes":"20"},"t_array(t_struct(File)10_storage)dyn_storage":{"base":"t_struct(File)10_storage","encoding":"dynamic_array","label":"struct Drive.File[]","numberOfBytes":"32"},"t_bool":{"encoding":"inplace","label":"bool","numberOfBytes":"1"},"t_bytes4":{"encoding":"inplace","label":"bytes4","numberOfBytes":"4"},"t_mapping(t_address,t_array(t_struct(File)10_storage)dyn_storage)":{"encoding":"mapping","key":"t_address","label":"mapping(address => struct Drive.File[])","numberOfBytes":"32","value":"t_array(t_struct(File)10_storage)dyn_storage"},"t_mapping(t_address,t_bool)":{"encoding":"mapping","key":"t_address","label":"mapping(address => bool)","numberOfBytes":"32","value":"t_bool"},"t_mapping(t_address,t_bytes4)":{"encoding":"mapping","key":"t_address","label":"mapping(address => bytes4)","numberOfBytes":"32","value":"t_bytes4"},"t_string_storage":{"encoding":"bytes","label":"string","numberOfBytes":"32"},"t_struct(File)10_storage":{"encoding":"inplace","label":"struct Drive.File","members":[{"astId":3,"contract":"Drive.sol:Drive","label":"link","offset":0,"slot":"0","type":"t_string_storage"},{"astId":5,"contract":"Drive.sol:Drive","label":"name","offset":0,"slot":"1","type":"t_string_storage"},{"astId":7,"contract":"Drive.sol:Drive","label":"date","offset":0,"slot":"2","type":"t_string_storage"},{"astId":9,"contract":"Drive.sol:Drive","label":"format","offset":0,"slot":"3","type":"t_string_storage"}],"numberOfBytes":"128"}}},"userdoc":{"kind":"user","methods":{},"version":1}}